No.     Time           Source                Destination           Protocol Length Info
      1 0.000000       host                  4.1.0                 USB      36     GET DESCRIPTOR Request CONFIGURATION

Frame 1: Packet, 36 bytes on wire (288 bits), 36 bytes captured (288 bits) on interface \\.\pipe\wireshark_extcap_20170305205941, id 0
    Section number: 1
    Interface id: 0 (\\.\pipe\wireshark_extcap_20170305205941)
        Interface name: \\.\pipe\wireshark_extcap_20170305205941
    Encapsulation type: USB packets with USBPcap header (152)
    Arrival Time: Mar  5, 2017 21:01:41.062755000 Малайское время (зима)
    UTC Arrival Time: Mar  5, 2017 13:01:41.062755000 UTC
    Epoch Arrival Time: 1488718901.062755000
    [Time shift for this packet: 0.000000000 seconds]
    [Time since reference or first frame: 0.000000000 seconds]
    Frame Number: 1
    Frame Length: 36 bytes (288 bits)
    Capture Length: 36 bytes (288 bits)
    [Frame is marked: False]
    [Frame is ignored: False]
    [Protocols in frame: usb]
    Character encoding: ASCII (0)
USB URB
    [Source: host]
    [Destination: 4.1.0]
    USBPcap pseudoheader length: 28
    IRP ID: 0xfffffa8009baf260
    IRP USBD_STATUS: USBD_STATUS_SUCCESS (0x00000000)
    URB Function: URB_FUNCTION_CONTROL_TRANSFER_EX (0x0032)
    IRP information: 0x00, Direction: FDO -> PDO
        0000 000. = Reserved: 0x00
        .... ...0 = Direction: FDO -> PDO (0x0)
    URB bus id: 4
    Device address: 1
    Endpoint: 0x80, Direction: IN
        1... .... = Direction: IN (1)
        .... 0000 = Endpoint number: 0
    URB transfer type: URB_CONTROL (0x02)
    Packet Data Length: 8
    [Response in: 2]
    Control transfer stage: Setup (0)
Setup Data
    bmRequestType: 0x80
        1... .... = Direction: Device-to-host
        .00. .... = Type: Standard (0x0)
        ...0 0000 = Recipient: Device (0x00)
    bRequest: GET DESCRIPTOR (6)
    Descriptor Index: 0x00
    bDescriptorType: CONFIGURATION (0x02)
    Language Id: no language specified (0x0000)
    wLength: 255

0.000000
0000  1c 00 60 f2 ba 09 80 fa ff ff 00 00 00 00 32 00   ..`...........2.
0010  00 04 00 01 00 80 02 08 00 00 00 00 80 06 00 02   ................
0020  00 00 ff 00                                       ....

No.     Time           Source                Destination           Protocol Length Info
      2 0.001000       4.1.0                 host                  USB      53     GET DESCRIPTOR Response CONFIGURATION

Frame 2: Packet, 53 bytes on wire (424 bits), 53 bytes captured (424 bits) on interface \\.\pipe\wireshark_extcap_20170305205941, id 0
    Section number: 1
    Interface id: 0 (\\.\pipe\wireshark_extcap_20170305205941)
        Interface name: \\.\pipe\wireshark_extcap_20170305205941
    Encapsulation type: USB packets with USBPcap header (152)
    Arrival Time: Mar  5, 2017 21:01:41.063755000 Малайское время (зима)
    UTC Arrival Time: Mar  5, 2017 13:01:41.063755000 UTC
    Epoch Arrival Time: 1488718901.063755000
    [Time shift for this packet: 0.000000000 seconds]
    [Time delta from previous captured frame: 1.000000 milliseconds]
    [Time delta from previous displayed frame: 1.000000 milliseconds]
    [Time since reference or first frame: 1.000000 milliseconds]
    Frame Number: 2
    Frame Length: 53 bytes (424 bits)
    Capture Length: 53 bytes (424 bits)
    [Frame is marked: False]
    [Frame is ignored: False]
    [Protocols in frame: usb]
    Character encoding: ASCII (0)
USB URB
    [Source: 4.1.0]
    [Destination: host]
    USBPcap pseudoheader length: 28
    IRP ID: 0xfffffa8009baf260
    IRP USBD_STATUS: USBD_STATUS_SUCCESS (0x00000000)
    URB Function: URB_FUNCTION_CONTROL_TRANSFER_EX (0x0032)
    IRP information: 0x01, Direction: PDO -> FDO
        0000 000. = Reserved: 0x00
        .... ...1 = Direction: PDO -> FDO (0x1)
    URB bus id: 4
    Device address: 1
    Endpoint: 0x80, Direction: IN
        1... .... = Direction: IN (1)
        .... 0000 = Endpoint number: 0
    URB transfer type: URB_CONTROL (0x02)
    Packet Data Length: 25
    [Request in: 1]
    [Time from request: 1.000000 milliseconds]
    Control transfer stage: Data (1)
CONFIGURATION DESCRIPTOR
    bLength: 9
    bDescriptorType: 0x02 (CONFIGURATION)
    wTotalLength: 25
    bNumInterfaces: 1
    bConfigurationValue: 1
    iConfiguration: 0
    Configuration bmAttributes: 0xa0  NOT SELF-POWERED  REMOTE-WAKEUP
        1... .... = Must be 1: Must be 1 for USB 1.1 and higher
        .0.. .... = Self-Powered: This device is powered from the USB bus
        ..1. .... = Remote Wakeup: This device supports REMOTE WAKEUP
    bMaxPower: 170  (340mA)
INTERFACE DESCRIPTOR (0.0): class Hub
    bLength: 9
    bDescriptorType: 0x04 (INTERFACE)
    bInterfaceNumber: 0
    bAlternateSetting: 0
    bNumEndpoints: 1
    bInterfaceClass: Hub (0x09)
    bInterfaceSubClass: 0x00
    bInterfaceProtocol: 0x00
    iInterface: 0
ENDPOINT DESCRIPTOR
    bLength: 7
    bDescriptorType: 0x05 (ENDPOINT)
    bEndpointAddress: 0x81  IN  Endpoint:1
        1... .... = Direction: IN Endpoint
        .... 0001 = Endpoint Number: 0x1
    bmAttributes: 0x03
        .... ..11 = Transfertype: Interrupt-Transfer (0x3)
    wMaxPacketSize: 64
        ...0 0... .... .... = Transactions per microframe: 1 (0)
        .... .000 0100 0000 = Maximum Packet Size: 64
    bInterval: 255

0.001000
0000  1c 00 60 f2 ba 09 80 fa ff ff 00 00 00 00 32 00   ..`...........2.
0010  01 04 00 01 00 80 02 19 00 00 00 01 09 02 19 00   ................
0020  01 01 00 a0 aa 09 04 00 00 01 09 00 00 00 07 05   ................
0030  81 03 40 00 ff                                    ..@..

No.     Time           Source                Destination           Protocol Length Info
      3 0.001000       4.1.0                 host                  USB      28     GET DESCRIPTOR status

Frame 3: Packet, 28 bytes on wire (224 bits), 28 bytes captured (224 bits) on interface \\.\pipe\wireshark_extcap_20170305205941, id 0
    Section number: 1
    Interface id: 0 (\\.\pipe\wireshark_extcap_20170305205941)
        Interface name: \\.\pipe\wireshark_extcap_20170305205941
    Encapsulation type: USB packets with USBPcap header (152)
    Arrival Time: Mar  5, 2017 21:01:41.063755000 Малайское время (зима)
    UTC Arrival Time: Mar  5, 2017 13:01:41.063755000 UTC
    Epoch Arrival Time: 1488718901.063755000
    [Time shift for this packet: 0.000000000 seconds]
    [Time delta from previous captured frame: 0.000000000 seconds]
    [Time delta from previous displayed frame: 0.000000000 seconds]
    [Time since reference or first frame: 1.000000 milliseconds]
    Frame Number: 3
    Frame Length: 28 bytes (224 bits)
    Capture Length: 28 bytes (224 bits)
    [Frame is marked: False]
    [Frame is ignored: False]
    [Protocols in frame: usb]
    Character encoding: ASCII (0)
USB URB
    [Source: 4.1.0]
    [Destination: host]
    USBPcap pseudoheader length: 28
    IRP ID: 0xfffffa8009baf260
    IRP USBD_STATUS: USBD_STATUS_SUCCESS (0x00000000)
    URB Function: URB_FUNCTION_CONTROL_TRANSFER_EX (0x0032)
    IRP information: 0x01, Direction: PDO -> FDO
        0000 000. = Reserved: 0x00
        .... ...1 = Direction: PDO -> FDO (0x1)
    URB bus id: 4
    Device address: 1
    Endpoint: 0x80, Direction: IN
        1... .... = Direction: IN (1)
        .... 0000 = Endpoint number: 0
    URB transfer type: URB_CONTROL (0x02)
    Packet Data Length: 0
    [Request in: 1]
    [Time from request: 1.000000 milliseconds]
    Control transfer stage: Status (2)

0.001000
0000  1c 00 60 f2 ba 09 80 fa ff ff 00 00 00 00 32 00   ..`...........2.
0010  01 04 00 01 00 80 02 00 00 00 00 02               ............

No.     Time           Source                Destination           Protocol Length Info
      4 0.001000       host                  4.1.0                 USB      36     GET STATUS Request

Frame 4: Packet, 36 bytes on wire (288 bits), 36 bytes captured (288 bits) on interface \\.\pipe\wireshark_extcap_20170305205941, id 0
    Section number: 1
    Interface id: 0 (\\.\pipe\wireshark_extcap_20170305205941)
        Interface name: \\.\pipe\wireshark_extcap_20170305205941
    Encapsulation type: USB packets with USBPcap header (152)
    Arrival Time: Mar  5, 2017 21:01:41.063755000 Малайское время (зима)
    UTC Arrival Time: Mar  5, 2017 13:01:41.063755000 UTC
    Epoch Arrival Time: 1488718901.063755000
    [Time shift for this packet: 0.000000000 seconds]
    [Time delta from previous captured frame: 0.000000000 seconds]
    [Time delta from previous displayed frame: 0.000000000 seconds]
    [Time since reference or first frame: 1.000000 milliseconds]
    Frame Number: 4
    Frame Length: 36 bytes (288 bits)
    Capture Length: 36 bytes (288 bits)
    [Frame is marked: False]
    [Frame is ignored: False]
    [Protocols in frame: usb]
    Character encoding: ASCII (0)
USB URB
    [Source: host]
    [Destination: 4.1.0]
    USBPcap pseudoheader length: 28
    IRP ID: 0xfffffa800f46d9c0
    IRP USBD_STATUS: USBD_STATUS_SUCCESS (0x00000000)
    URB Function: URB_FUNCTION_CONTROL_TRANSFER_EX (0x0032)
    IRP information: 0x00, Direction: FDO -> PDO
        0000 000. = Reserved: 0x00
        .... ...0 = Direction: FDO -> PDO (0x0)
    URB bus id: 4
    Device address: 1
    Endpoint: 0x80, Direction: IN
        1... .... = Direction: IN (1)
        .... 0000 = Endpoint number: 0
    URB transfer type: URB_CONTROL (0x02)
    Packet Data Length: 8
    [Response in: 5]
    Control transfer stage: Setup (0)
Setup Data
    bmRequestType: 0x80
        1... .... = Direction: Device-to-host
        .00. .... = Type: Standard (0x0)
        ...0 0000 = Recipient: Device (0x00)
    bRequest: GET STATUS (0)
    wValue: 0x0000
    wIndex: 0 (0x0000)
    wLength: 2

0.001000
0000  1c 00 c0 d9 46 0f 80 fa ff ff 00 00 00 00 32 00   ....F.........2.
0010  00 04 00 01 00 80 02 08 00 00 00 00 80 00 00 00   ................
0020  00 00 02 00                                       ....

No.     Time           Source                Destination           Protocol Length Info
      5 0.002000       4.1.0                 host                  USB      30     GET STATUS Response

Frame 5: Packet, 30 bytes on wire (240 bits), 30 bytes captured (240 bits) on interface \\.\pipe\wireshark_extcap_20170305205941, id 0
    Section number: 1
    Interface id: 0 (\\.\pipe\wireshark_extcap_20170305205941)
        Interface name: \\.\pipe\wireshark_extcap_20170305205941
    Encapsulation type: USB packets with USBPcap header (152)
    Arrival Time: Mar  5, 2017 21:01:41.064755000 Малайское время (зима)
    UTC Arrival Time: Mar  5, 2017 13:01:41.064755000 UTC
    Epoch Arrival Time: 1488718901.064755000
    [Time shift for this packet: 0.000000000 seconds]
    [Time delta from previous captured frame: 1.000000 milliseconds]
    [Time delta from previous displayed frame: 1.000000 milliseconds]
    [Time since reference or first frame: 2.000000 milliseconds]
    Frame Number: 5
    Frame Length: 30 bytes (240 bits)
    Capture Length: 30 bytes (240 bits)
    [Frame is marked: False]
    [Frame is ignored: False]
    [Protocols in frame: usb]
    Character encoding: ASCII (0)
USB URB
    [Source: 4.1.0]
    [Destination: host]
    USBPcap pseudoheader length: 28
    IRP ID: 0xfffffa800f46d9c0
    IRP USBD_STATUS: USBD_STATUS_SUCCESS (0x00000000)
    URB Function: URB_FUNCTION_CONTROL_TRANSFER_EX (0x0032)
    IRP information: 0x01, Direction: PDO -> FDO
        0000 000. = Reserved: 0x00
        .... ...1 = Direction: PDO -> FDO (0x1)
    URB bus id: 4
    Device address: 1
    Endpoint: 0x80, Direction: IN
        1... .... = Direction: IN (1)
        .... 0000 = Endpoint number: 0
    URB transfer type: URB_CONTROL (0x02)
    Packet Data Length: 2
    [Request in: 4]
    [Time from request: 1.000000 milliseconds]
    Control transfer stage: Data (1)
wStatus: 0x0000

0.002000
0000  1c 00 c0 d9 46 0f 80 fa ff ff 00 00 00 00 32 00   ....F.........2.
0010  01 04 00 01 00 80 02 02 00 00 00 01 00 00         ..............

No.     Time           Source                Destination           Protocol Length Info
      6 0.002000       4.1.0                 host                  USB      28     GET STATUS status

Frame 6: Packet, 28 bytes on wire (224 bits), 28 bytes captured (224 bits) on interface \\.\pipe\wireshark_extcap_20170305205941, id 0
    Section number: 1
    Interface id: 0 (\\.\pipe\wireshark_extcap_20170305205941)
        Interface name: \\.\pipe\wireshark_extcap_20170305205941
    Encapsulation type: USB packets with USBPcap header (152)
    Arrival Time: Mar  5, 2017 21:01:41.064755000 Малайское время (зима)
    UTC Arrival Time: Mar  5, 2017 13:01:41.064755000 UTC
    Epoch Arrival Time: 1488718901.064755000
    [Time shift for this packet: 0.000000000 seconds]
    [Time delta from previous captured frame: 0.000000000 seconds]
    [Time delta from previous displayed frame: 0.000000000 seconds]
    [Time since reference or first frame: 2.000000 milliseconds]
    Frame Number: 6
    Frame Length: 28 bytes (224 bits)
    Capture Length: 28 bytes (224 bits)
    [Frame is marked: False]
    [Frame is ignored: False]
    [Protocols in frame: usb]
    Character encoding: ASCII (0)
USB URB
    [Source: 4.1.0]
    [Destination: host]
    USBPcap pseudoheader length: 28
    IRP ID: 0xfffffa800f46d9c0
    IRP USBD_STATUS: USBD_STATUS_SUCCESS (0x00000000)
    URB Function: URB_FUNCTION_CONTROL_TRANSFER_EX (0x0032)
    IRP information: 0x01, Direction: PDO -> FDO
        0000 000. = Reserved: 0x00
        .... ...1 = Direction: PDO -> FDO (0x1)
    URB bus id: 4
    Device address: 1
    Endpoint: 0x80, Direction: IN
        1... .... = Direction: IN (1)
        .... 0000 = Endpoint number: 0
    URB transfer type: URB_CONTROL (0x02)
    Packet Data Length: 0
    [Request in: 4]
    [Time from request: 1.000000 milliseconds]
    Control transfer stage: Status (2)

0.002000
0000  1c 00 c0 d9 46 0f 80 fa ff ff 00 00 00 00 32 00   ....F.........2.
0010  01 04 00 01 00 80 02 00 00 00 00 02               ............

No.     Time           Source                Destination           Protocol Length Info
      7 0.002000       host                  4.1.0                 USB      36     SET CONFIGURATION Request

Frame 7: Packet, 36 bytes on wire (288 bits), 36 bytes captured (288 bits) on interface \\.\pipe\wireshark_extcap_20170305205941, id 0
    Section number: 1
    Interface id: 0 (\\.\pipe\wireshark_extcap_20170305205941)
        Interface name: \\.\pipe\wireshark_extcap_20170305205941
    Encapsulation type: USB packets with USBPcap header (152)
    Arrival Time: Mar  5, 2017 21:01:41.064755000 Малайское время (зима)
    UTC Arrival Time: Mar  5, 2017 13:01:41.064755000 UTC
    Epoch Arrival Time: 1488718901.064755000
    [Time shift for this packet: 0.000000000 seconds]
    [Time delta from previous captured frame: 0.000000000 seconds]
    [Time delta from previous displayed frame: 0.000000000 seconds]
    [Time since reference or first frame: 2.000000 milliseconds]
    Frame Number: 7
    Frame Length: 36 bytes (288 bits)
    Capture Length: 36 bytes (288 bits)
    [Frame is marked: False]
    [Frame is ignored: False]
    [Protocols in frame: usb]
    Character encoding: ASCII (0)
USB URB
    [Source: host]
    [Destination: 4.1.0]
    USBPcap pseudoheader length: 28
    IRP ID: 0xfffffa800f46d9c0
    IRP USBD_STATUS: USBD_STATUS_SUCCESS (0x00000000)
    URB Function: URB_FUNCTION_SELECT_CONFIGURATION (0x0000)
    IRP information: 0x00, Direction: FDO -> PDO
        0000 000. = Reserved: 0x00
        .... ...0 = Direction: FDO -> PDO (0x0)
    URB bus id: 4
    Device address: 1
    Endpoint: 0x80, Direction: IN
        1... .... = Direction: IN (1)
        .... 0000 = Endpoint number: 0
    URB transfer type: URB_CONTROL (0x02)
    Packet Data Length: 8
    [Response in: 8]
    Control transfer stage: Setup (0)
Setup Data
    bmRequestType: 0x00
        0... .... = Direction: Host-to-device
        .00. .... = Type: Standard (0x0)
        ...0 0000 = Recipient: Device (0x00)
    bRequest: SET CONFIGURATION (9)
    bConfigurationValue: 1
    wIndex: 0 (0x0000)
    wLength: 0

0.002000
0000  1c 00 c0 d9 46 0f 80 fa ff ff 00 00 00 00 00 00   ....F...........
0010  00 04 00 01 00 80 02 08 00 00 00 00 00 09 01 00   ................
0020  00 00 00 00                                       ....

No.     Time           Source                Destination           Protocol Length Info
      8 0.002000       4.1.0                 host                  USB      28     SET CONFIGURATION status

Frame 8: Packet, 28 bytes on wire (224 bits), 28 bytes captured (224 bits) on interface \\.\pipe\wireshark_extcap_20170305205941, id 0
    Section number: 1
    Interface id: 0 (\\.\pipe\wireshark_extcap_20170305205941)
        Interface name: \\.\pipe\wireshark_extcap_20170305205941
    Encapsulation type: USB packets with USBPcap header (152)
    Arrival Time: Mar  5, 2017 21:01:41.064755000 Малайское время (зима)
    UTC Arrival Time: Mar  5, 2017 13:01:41.064755000 UTC
    Epoch Arrival Time: 1488718901.064755000
    [Time shift for this packet: 0.000000000 seconds]
    [Time delta from previous captured frame: 0.000000000 seconds]
    [Time delta from previous displayed frame: 0.000000000 seconds]
    [Time since reference or first frame: 2.000000 milliseconds]
    Frame Number: 8
    Frame Length: 28 bytes (224 bits)
    Capture Length: 28 bytes (224 bits)
    [Frame is marked: False]
    [Frame is ignored: False]
    [Protocols in frame: usb]
    Character encoding: ASCII (0)
USB URB
    [Source: 4.1.0]
    [Destination: host]
    USBPcap pseudoheader length: 28
    IRP ID: 0xfffffa800f46d9c0
    IRP USBD_STATUS: USBD_STATUS_SUCCESS (0x00000000)
    URB Function: URB_FUNCTION_SELECT_CONFIGURATION (0x0000)
    IRP information: 0x01, Direction: PDO -> FDO
        0000 000. = Reserved: 0x00
        .... ...1 = Direction: PDO -> FDO (0x1)
    URB bus id: 4
    Device address: 1
    Endpoint: 0x80, Direction: IN
        1... .... = Direction: IN (1)
        .... 0000 = Endpoint number: 0
    URB transfer type: URB_CONTROL (0x02)
    Packet Data Length: 0
    [Request in: 7]
    [Time from request: 0.000000000 seconds]
    Control transfer stage: Status (2)

0.002000
0000  1c 00 c0 d9 46 0f 80 fa ff ff 00 00 00 00 00 00   ....F...........
0010  01 04 00 01 00 80 02 00 00 00 00 02               ............

No.     Time           Source                Destination           Protocol Length Info
      9 0.002000       host                  4.1.0                 USBHUB   36     GET_DESCRIPTOR Request 

Frame 9: Packet, 36 bytes on wire (288 bits), 36 bytes captured (288 bits) on interface \\.\pipe\wireshark_extcap_20170305205941, id 0
    Section number: 1
    Interface id: 0 (\\.\pipe\wireshark_extcap_20170305205941)
        Interface name: \\.\pipe\wireshark_extcap_20170305205941
    Encapsulation type: USB packets with USBPcap header (152)
    Arrival Time: Mar  5, 2017 21:01:41.064755000 Малайское время (зима)
    UTC Arrival Time: Mar  5, 2017 13:01:41.064755000 UTC
    Epoch Arrival Time: 1488718901.064755000
    [Time shift for this packet: 0.000000000 seconds]
    [Time delta from previous captured frame: 0.000000000 seconds]
    [Time delta from previous displayed frame: 0.000000000 seconds]
    [Time since reference or first frame: 2.000000 milliseconds]
    Frame Number: 9
    Frame Length: 36 bytes (288 bits)
    Capture Length: 36 bytes (288 bits)
    [Frame is marked: False]
    [Frame is ignored: False]
    [Protocols in frame: usb:usbhub]
    Character encoding: ASCII (0)
USB URB
    [Source: host]
    [Destination: 4.1.0]
    USBPcap pseudoheader length: 28
    IRP ID: 0xfffffa800f46d9c0
    IRP USBD_STATUS: USBD_STATUS_SUCCESS (0x00000000)
    URB Function: URB_FUNCTION_CONTROL_TRANSFER_EX (0x0032)
    IRP information: 0x00, Direction: FDO -> PDO
        0000 000. = Reserved: 0x00
        .... ...0 = Direction: FDO -> PDO (0x0)
    URB bus id: 4
    Device address: 1
    Endpoint: 0x80, Direction: IN
        1... .... = Direction: IN (1)
        .... 0000 = Endpoint number: 0
    URB transfer type: URB_CONTROL (0x02)
    Packet Data Length: 8
    [Response in: 10]
    Control transfer stage: Setup (0)
    [bInterfaceClass: Unknown (0xffff)]
Setup Data
    bmRequestType: 0xa0
        1... .... = Direction: Device-to-host
        .01. .... = Type: Class (0x1)
        ...0 0000 = Recipient: Device (0x00)
    bRequest: GET_DESCRIPTOR (0x06)
    wValue: 0x2900
        DescriptorIndex: 0
        DescriptorType: 41
    wIndex: 0
        (zero): 0
    wLength: 71
        DescriptorLength: 71

0.002000
0000  1c 00 c0 d9 46 0f 80 fa ff ff 00 00 00 00 32 00   ....F.........2.
0010  00 04 00 01 00 80 02 08 00 00 00 00 a0 06 00 29   ...............)
0020  00 00 47 00                                       ..G.

No.     Time           Source                Destination           Protocol Length Info
     10 0.002000       4.1.0                 host                  USBHUB   37     GET_DESCRIPTOR Response

Frame 10: Packet, 37 bytes on wire (296 bits), 37 bytes captured (296 bits) on interface \\.\pipe\wireshark_extcap_20170305205941, id 0
    Section number: 1
    Interface id: 0 (\\.\pipe\wireshark_extcap_20170305205941)
        Interface name: \\.\pipe\wireshark_extcap_20170305205941
    Encapsulation type: USB packets with USBPcap header (152)
    Arrival Time: Mar  5, 2017 21:01:41.064755000 Малайское время (зима)
    UTC Arrival Time: Mar  5, 2017 13:01:41.064755000 UTC
    Epoch Arrival Time: 1488718901.064755000
    [Time shift for this packet: 0.000000000 seconds]
    [Time delta from previous captured frame: 0.000000000 seconds]
    [Time delta from previous displayed frame: 0.000000000 seconds]
    [Time since reference or first frame: 2.000000 milliseconds]
    Frame Number: 10
    Frame Length: 37 bytes (296 bits)
    Capture Length: 37 bytes (296 bits)
    [Frame is marked: False]
    [Frame is ignored: False]
    [Protocols in frame: usb]
    Character encoding: ASCII (0)
USB URB
    [Source: 4.1.0]
    [Destination: host]
    USBPcap pseudoheader length: 28
    IRP ID: 0xfffffa800f46d9c0
    IRP USBD_STATUS: USBD_STATUS_SUCCESS (0x00000000)
    URB Function: URB_FUNCTION_CONTROL_TRANSFER_EX (0x0032)
    IRP information: 0x01, Direction: PDO -> FDO
        0000 000. = Reserved: 0x00
        .... ...1 = Direction: PDO -> FDO (0x1)
    URB bus id: 4
    Device address: 1
    Endpoint: 0x80, Direction: IN
        1... .... = Direction: IN (1)
        .... 0000 = Endpoint number: 0
    URB transfer type: URB_CONTROL (0x02)
    Packet Data Length: 9
    [Request in: 9]
    [Time from request: 0.000000000 seconds]
    Control transfer stage: Data (1)
    [bInterfaceClass: Unknown (0xffff)]

0.002000
0000  1c 00 c0 d9 46 0f 80 fa ff ff 00 00 00 00 32 00   ....F.........2.
0010  01 04 00 01 00 80 02 09 00 00 00 01 09 29 04 00   .............)..
0020  00 00 00 1f 00                                    .....

No.     Time           Source                Destination           Protocol Length Info
     11 0.002000       4.1.0                 host                  USB      28     URB_CONTROL status

Frame 11: Packet, 28 bytes on wire (224 bits), 28 bytes captured (224 bits) on interface \\.\pipe\wireshark_extcap_20170305205941, id 0
    Section number: 1
    Interface id: 0 (\\.\pipe\wireshark_extcap_20170305205941)
        Interface name: \\.\pipe\wireshark_extcap_20170305205941
    Encapsulation type: USB packets with USBPcap header (152)
    Arrival Time: Mar  5, 2017 21:01:41.064755000 Малайское время (зима)
    UTC Arrival Time: Mar  5, 2017 13:01:41.064755000 UTC
    Epoch Arrival Time: 1488718901.064755000
    [Time shift for this packet: 0.000000000 seconds]
    [Time delta from previous captured frame: 0.000000000 seconds]
    [Time delta from previous displayed frame: 0.000000000 seconds]
    [Time since reference or first frame: 2.000000 milliseconds]
    Frame Number: 11
    Frame Length: 28 bytes (224 bits)
    Capture Length: 28 bytes (224 bits)
    [Frame is marked: False]
    [Frame is ignored: False]
    [Protocols in frame: usb]
    Character encoding: ASCII (0)
USB URB
    [Source: 4.1.0]
    [Destination: host]
    USBPcap pseudoheader length: 28
    IRP ID: 0xfffffa800f46d9c0
    IRP USBD_STATUS: USBD_STATUS_SUCCESS (0x00000000)
    URB Function: URB_FUNCTION_CONTROL_TRANSFER_EX (0x0032)
    IRP information: 0x01, Direction: PDO -> FDO
        0000 000. = Reserved: 0x00
        .... ...1 = Direction: PDO -> FDO (0x1)
    URB bus id: 4
    Device address: 1
    Endpoint: 0x80, Direction: IN
        1... .... = Direction: IN (1)
        .... 0000 = Endpoint number: 0
    URB transfer type: URB_CONTROL (0x02)
    Packet Data Length: 0
    [Request in: 9]
    [Time from request: 0.000000000 seconds]
    Control transfer stage: Status (2)

0.002000
0000  1c 00 c0 d9 46 0f 80 fa ff ff 00 00 00 00 32 00   ....F.........2.
0010  01 04 00 01 00 80 02 00 00 00 00 02               ............

No.     Time           Source                Destination           Protocol Length Info
     12 0.002000       host                  4.1.0                 USBHUB   36     GET_STATUS Request     [Hub]

Frame 12: Packet, 36 bytes on wire (288 bits), 36 bytes captured (288 bits) on interface \\.\pipe\wireshark_extcap_20170305205941, id 0
    Section number: 1
    Interface id: 0 (\\.\pipe\wireshark_extcap_20170305205941)
        Interface name: \\.\pipe\wireshark_extcap_20170305205941
    Encapsulation type: USB packets with USBPcap header (152)
    Arrival Time: Mar  5, 2017 21:01:41.064755000 Малайское время (зима)
    UTC Arrival Time: Mar  5, 2017 13:01:41.064755000 UTC
    Epoch Arrival Time: 1488718901.064755000
    [Time shift for this packet: 0.000000000 seconds]
    [Time delta from previous captured frame: 0.000000000 seconds]
    [Time delta from previous displayed frame: 0.000000000 seconds]
    [Time since reference or first frame: 2.000000 milliseconds]
    Frame Number: 12
    Frame Length: 36 bytes (288 bits)
    Capture Length: 36 bytes (288 bits)
    [Frame is marked: False]
    [Frame is ignored: False]
    [Protocols in frame: usb:usbhub]
    Character encoding: ASCII (0)
USB URB
    [Source: host]
    [Destination: 4.1.0]
    USBPcap pseudoheader length: 28
    IRP ID: 0xfffffa800f46d9c0
    IRP USBD_STATUS: USBD_STATUS_SUCCESS (0x00000000)
    URB Function: URB_FUNCTION_CONTROL_TRANSFER_EX (0x0032)
    IRP information: 0x00, Direction: FDO -> PDO
        0000 000. = Reserved: 0x00
        .... ...0 = Direction: FDO -> PDO (0x0)
    URB bus id: 4
    Device address: 1
    Endpoint: 0x80, Direction: IN
        1... .... = Direction: IN (1)
        .... 0000 = Endpoint number: 0
    URB transfer type: URB_CONTROL (0x02)
    Packet Data Length: 8
    [Response in: 13]
    Control transfer stage: Setup (0)
    [bInterfaceClass: Unknown (0xffff)]
Setup Data
    bmRequestType: 0xa0
        1... .... = Direction: Device-to-host
        .01. .... = Type: Class (0x1)
        ...0 0000 = Recipient: Device (0x00)
    bRequest: GET_STATUS (0x00)
    wValue: 0x0000
        (zero): 0
    wIndex: 0
        (zero): 0
    wLength: 4

0.002000
0000  1c 00 c0 d9 46 0f 80 fa ff ff 00 00 00 00 32 00   ....F.........2.
0010  00 04 00 01 00 80 02 08 00 00 00 00 a0 00 00 00   ................
0020  00 00 04 00                                       ....

No.     Time           Source                Destination           Protocol Length Info
     13 0.003000       4.1.0                 host                  USBHUB   32     GET_STATUS Response    [Hub]

Frame 13: Packet, 32 bytes on wire (256 bits), 32 bytes captured (256 bits) on interface \\.\pipe\wireshark_extcap_20170305205941, id 0
    Section number: 1
    Interface id: 0 (\\.\pipe\wireshark_extcap_20170305205941)
        Interface name: \\.\pipe\wireshark_extcap_20170305205941
    Encapsulation type: USB packets with USBPcap header (152)
    Arrival Time: Mar  5, 2017 21:01:41.065755000 Малайское время (зима)
    UTC Arrival Time: Mar  5, 2017 13:01:41.065755000 UTC
    Epoch Arrival Time: 1488718901.065755000
    [Time shift for this packet: 0.000000000 seconds]
    [Time delta from previous captured frame: 1.000000 milliseconds]
    [Time delta from previous displayed frame: 1.000000 milliseconds]
    [Time since reference or first frame: 3.000000 milliseconds]
    Frame Number: 13
    Frame Length: 32 bytes (256 bits)
    Capture Length: 32 bytes (256 bits)
    [Frame is marked: False]
    [Frame is ignored: False]
    [Protocols in frame: usb]
    Character encoding: ASCII (0)
USB URB
    [Source: 4.1.0]
    [Destination: host]
    USBPcap pseudoheader length: 28
    IRP ID: 0xfffffa800f46d9c0
    IRP USBD_STATUS: USBD_STATUS_SUCCESS (0x00000000)
    URB Function: URB_FUNCTION_CONTROL_TRANSFER_EX (0x0032)
    IRP information: 0x01, Direction: PDO -> FDO
        0000 000. = Reserved: 0x00
        .... ...1 = Direction: PDO -> FDO (0x1)
    URB bus id: 4
    Device address: 1
    Endpoint: 0x80, Direction: IN
        1... .... = Direction: IN (1)
        .... 0000 = Endpoint number: 0
    URB transfer type: URB_CONTROL (0x02)
    Packet Data Length: 4
    [Request in: 12]
    [Time from request: 1.000000 milliseconds]
    Control transfer stage: Data (1)
    [bInterfaceClass: Unknown (0xffff)]

0.003000
0000  1c 00 c0 d9 46 0f 80 fa ff ff 00 00 00 00 32 00   ....F.........2.
0010  01 04 00 01 00 80 02 04 00 00 00 01 00 00 00 00   ................

No.     Time           Source                Destination           Protocol Length Info
     14 0.003000       4.1.0                 host                  USB      28     URB_CONTROL status

Frame 14: Packet, 28 bytes on wire (224 bits), 28 bytes captured (224 bits) on interface \\.\pipe\wireshark_extcap_20170305205941, id 0
    Section number: 1
    Interface id: 0 (\\.\pipe\wireshark_extcap_20170305205941)
        Interface name: \\.\pipe\wireshark_extcap_20170305205941
    Encapsulation type: USB packets with USBPcap header (152)
    Arrival Time: Mar  5, 2017 21:01:41.065755000 Малайское время (зима)
    UTC Arrival Time: Mar  5, 2017 13:01:41.065755000 UTC
    Epoch Arrival Time: 1488718901.065755000
    [Time shift for this packet: 0.000000000 seconds]
    [Time delta from previous captured frame: 0.000000000 seconds]
    [Time delta from previous displayed frame: 0.000000000 seconds]
    [Time since reference or first frame: 3.000000 milliseconds]
    Frame Number: 14
    Frame Length: 28 bytes (224 bits)
    Capture Length: 28 bytes (224 bits)
    [Frame is marked: False]
    [Frame is ignored: False]
    [Protocols in frame: usb]
    Character encoding: ASCII (0)
USB URB
    [Source: 4.1.0]
    [Destination: host]
    USBPcap pseudoheader length: 28
    IRP ID: 0xfffffa800f46d9c0
    IRP USBD_STATUS: USBD_STATUS_SUCCESS (0x00000000)
    URB Function: URB_FUNCTION_CONTROL_TRANSFER_EX (0x0032)
    IRP information: 0x01, Direction: PDO -> FDO
        0000 000. = Reserved: 0x00
        .... ...1 = Direction: PDO -> FDO (0x1)
    URB bus id: 4
    Device address: 1
    Endpoint: 0x80, Direction: IN
        1... .... = Direction: IN (1)
        .... 0000 = Endpoint number: 0
    URB transfer type: URB_CONTROL (0x02)
    Packet Data Length: 0
    [Request in: 12]
    [Time from request: 1.000000 milliseconds]
    Control transfer stage: Status (2)

0.003000
0000  1c 00 c0 d9 46 0f 80 fa ff ff 00 00 00 00 32 00   ....F.........2.
0010  01 04 00 01 00 80 02 00 00 00 00 02               ............

No.     Time           Source                Destination           Protocol Length Info
     15 0.003000       host                  4.1.0                 USBHUB   36     SET_FEATURE Request    [Port 1: PORT_POWER]

Frame 15: Packet, 36 bytes on wire (288 bits), 36 bytes captured (288 bits) on interface \\.\pipe\wireshark_extcap_20170305205941, id 0
    Section number: 1
    Interface id: 0 (\\.\pipe\wireshark_extcap_20170305205941)
        Interface name: \\.\pipe\wireshark_extcap_20170305205941
    Encapsulation type: USB packets with USBPcap header (152)
    Arrival Time: Mar  5, 2017 21:01:41.065755000 Малайское время (зима)
    UTC Arrival Time: Mar  5, 2017 13:01:41.065755000 UTC
    Epoch Arrival Time: 1488718901.065755000
    [Time shift for this packet: 0.000000000 seconds]
    [Time delta from previous captured frame: 0.000000000 seconds]
    [Time delta from previous displayed frame: 0.000000000 seconds]
    [Time since reference or first frame: 3.000000 milliseconds]
    Frame Number: 15
    Frame Length: 36 bytes (288 bits)
    Capture Length: 36 bytes (288 bits)
    [Frame is marked: False]
    [Frame is ignored: False]
    [Protocols in frame: usb:usbhub]
    Character encoding: ASCII (0)
USB URB
    [Source: host]
    [Destination: 4.1.0]
    USBPcap pseudoheader length: 28
    IRP ID: 0xfffffa8009be5260
    IRP USBD_STATUS: USBD_STATUS_SUCCESS (0x00000000)
    URB Function: URB_FUNCTION_CONTROL_TRANSFER_EX (0x0032)
    IRP information: 0x00, Direction: FDO -> PDO
        0000 000. = Reserved: 0x00
        .... ...0 = Direction: FDO -> PDO (0x0)
    URB bus id: 4
    Device address: 1
    Endpoint: 0x00, Direction: OUT
        0... .... = Direction: OUT (0)
        .... 0000 = Endpoint number: 0
    URB transfer type: URB_CONTROL (0x02)
    Packet Data Length: 8
    [Response in: 16]
    Control transfer stage: Setup (0)
    [bInterfaceClass: Unknown (0xffff)]
Setup Data
    bmRequestType: 0x23
        0... .... = Direction: Host-to-device
        .01. .... = Type: Class (0x1)
        ...0 0011 = Recipient: Other (0x03)
    bRequest: SET_FEATURE (0x03)
    wValue: 0x0008
        PortFeatureSelector: PORT_POWER (8)
    wIndex: 1
        Port: 1
        PortSelector: 0
    wLength: 0
        (zero): 0

0.003000
0000  1c 00 60 52 be 09 80 fa ff ff 00 00 00 00 32 00   ..`R..........2.
0010  00 04 00 01 00 00 02 08 00 00 00 00 23 03 08 00   ............#...
0020  01 00 00 00                                       ....

No.     Time           Source                Destination           Protocol Length Info
     16 0.004000       4.1.0                 host                  USB      28     URB_CONTROL status

Frame 16: Packet, 28 bytes on wire (224 bits), 28 bytes captured (224 bits) on interface \\.\pipe\wireshark_extcap_20170305205941, id 0
    Section number: 1
    Interface id: 0 (\\.\pipe\wireshark_extcap_20170305205941)
        Interface name: \\.\pipe\wireshark_extcap_20170305205941
    Encapsulation type: USB packets with USBPcap header (152)
    Arrival Time: Mar  5, 2017 21:01:41.066755000 Малайское время (зима)
    UTC Arrival Time: Mar  5, 2017 13:01:41.066755000 UTC
    Epoch Arrival Time: 1488718901.066755000
    [Time shift for this packet: 0.000000000 seconds]
    [Time delta from previous captured frame: 1.000000 milliseconds]
    [Time delta from previous displayed frame: 1.000000 milliseconds]
    [Time since reference or first frame: 4.000000 milliseconds]
    Frame Number: 16
    Frame Length: 28 bytes (224 bits)
    Capture Length: 28 bytes (224 bits)
    [Frame is marked: False]
    [Frame is ignored: False]
    [Protocols in frame: usb]
    Character encoding: ASCII (0)
USB URB
    [Source: 4.1.0]
    [Destination: host]
    USBPcap pseudoheader length: 28
    IRP ID: 0xfffffa8009be5260
    IRP USBD_STATUS: USBD_STATUS_SUCCESS (0x00000000)
    URB Function: URB_FUNCTION_CONTROL_TRANSFER_EX (0x0032)
    IRP information: 0x01, Direction: PDO -> FDO
        0000 000. = Reserved: 0x00
        .... ...1 = Direction: PDO -> FDO (0x1)
    URB bus id: 4
    Device address: 1
    Endpoint: 0x00, Direction: OUT
        0... .... = Direction: OUT (0)
        .... 0000 = Endpoint number: 0
    URB transfer type: URB_CONTROL (0x02)
    Packet Data Length: 0
    [Request in: 15]
    [Time from request: 1.000000 milliseconds]
    Control transfer stage: Status (2)

0.004000
0000  1c 00 60 52 be 09 80 fa ff ff 00 00 00 00 32 00   ..`R..........2.
0010  01 04 00 01 00 00 02 00 00 00 00 02               ............

No.     Time           Source                Destination           Protocol Length Info
     17 0.004000       host                  4.1.0                 USBHUB   36     SET_FEATURE Request    [Port 2: PORT_POWER]

Frame 17: Packet, 36 bytes on wire (288 bits), 36 bytes captured (288 bits) on interface \\.\pipe\wireshark_extcap_20170305205941, id 0
    Section number: 1
    Interface id: 0 (\\.\pipe\wireshark_extcap_20170305205941)
        Interface name: \\.\pipe\wireshark_extcap_20170305205941
    Encapsulation type: USB packets with USBPcap header (152)
    Arrival Time: Mar  5, 2017 21:01:41.066755000 Малайское время (зима)
    UTC Arrival Time: Mar  5, 2017 13:01:41.066755000 UTC
    Epoch Arrival Time: 1488718901.066755000
    [Time shift for this packet: 0.000000000 seconds]
    [Time delta from previous captured frame: 0.000000000 seconds]
    [Time delta from previous displayed frame: 0.000000000 seconds]
    [Time since reference or first frame: 4.000000 milliseconds]
    Frame Number: 17
    Frame Length: 36 bytes (288 bits)
    Capture Length: 36 bytes (288 bits)
    [Frame is marked: False]
    [Frame is ignored: False]
    [Protocols in frame: usb:usbhub]
    Character encoding: ASCII (0)
USB URB
    [Source: host]
    [Destination: 4.1.0]
    USBPcap pseudoheader length: 28
    IRP ID: 0xfffffa8009be5260
    IRP USBD_STATUS: USBD_STATUS_SUCCESS (0x00000000)
    URB Function: URB_FUNCTION_CONTROL_TRANSFER_EX (0x0032)
    IRP information: 0x00, Direction: FDO -> PDO
        0000 000. = Reserved: 0x00
        .... ...0 = Direction: FDO -> PDO (0x0)
    URB bus id: 4
    Device address: 1
    Endpoint: 0x00, Direction: OUT
        0... .... = Direction: OUT (0)
        .... 0000 = Endpoint number: 0
    URB transfer type: URB_CONTROL (0x02)
    Packet Data Length: 8
    [Response in: 18]
    Control transfer stage: Setup (0)
    [bInterfaceClass: Unknown (0xffff)]
Setup Data
    bmRequestType: 0x23
        0... .... = Direction: Host-to-device
        .01. .... = Type: Class (0x1)
        ...0 0011 = Recipient: Other (0x03)
    bRequest: SET_FEATURE (0x03)
    wValue: 0x0008
        PortFeatureSelector: PORT_POWER (8)
    wIndex: 2
        Port: 2
        PortSelector: 0
    wLength: 0
        (zero): 0

0.004000
0000  1c 00 60 52 be 09 80 fa ff ff 00 00 00 00 32 00   ..`R..........2.
0010  00 04 00 01 00 00 02 08 00 00 00 00 23 03 08 00   ............#...
0020  02 00 00 00                                       ....

No.     Time           Source                Destination           Protocol Length Info
     18 0.005000       4.1.0                 host                  USB      28     URB_CONTROL status

Frame 18: Packet, 28 bytes on wire (224 bits), 28 bytes captured (224 bits) on interface \\.\pipe\wireshark_extcap_20170305205941, id 0
    Section number: 1
    Interface id: 0 (\\.\pipe\wireshark_extcap_20170305205941)
        Interface name: \\.\pipe\wireshark_extcap_20170305205941
    Encapsulation type: USB packets with USBPcap header (152)
    Arrival Time: Mar  5, 2017 21:01:41.067755000 Малайское время (зима)
    UTC Arrival Time: Mar  5, 2017 13:01:41.067755000 UTC
    Epoch Arrival Time: 1488718901.067755000
    [Time shift for this packet: 0.000000000 seconds]
    [Time delta from previous captured frame: 1.000000 milliseconds]
    [Time delta from previous displayed frame: 1.000000 milliseconds]
    [Time since reference or first frame: 5.000000 milliseconds]
    Frame Number: 18
    Frame Length: 28 bytes (224 bits)
    Capture Length: 28 bytes (224 bits)
    [Frame is marked: False]
    [Frame is ignored: False]
    [Protocols in frame: usb]
    Character encoding: ASCII (0)
USB URB
    [Source: 4.1.0]
    [Destination: host]
    USBPcap pseudoheader length: 28
    IRP ID: 0xfffffa8009be5260
    IRP USBD_STATUS: USBD_STATUS_SUCCESS (0x00000000)
    URB Function: URB_FUNCTION_CONTROL_TRANSFER_EX (0x0032)
    IRP information: 0x01, Direction: PDO -> FDO
        0000 000. = Reserved: 0x00
        .... ...1 = Direction: PDO -> FDO (0x1)
    URB bus id: 4
    Device address: 1
    Endpoint: 0x00, Direction: OUT
        0... .... = Direction: OUT (0)
        .... 0000 = Endpoint number: 0
    URB transfer type: URB_CONTROL (0x02)
    Packet Data Length: 0
    [Request in: 17]
    [Time from request: 1.000000 milliseconds]
    Control transfer stage: Status (2)

0.005000
0000  1c 00 60 52 be 09 80 fa ff ff 00 00 00 00 32 00   ..`R..........2.
0010  01 04 00 01 00 00 02 00 00 00 00 02               ............

No.     Time           Source                Destination           Protocol Length Info
     19 0.005000       host                  4.1.0                 USBHUB   36     SET_FEATURE Request    [Port 3: PORT_POWER]

Frame 19: Packet, 36 bytes on wire (288 bits), 36 bytes captured (288 bits) on interface \\.\pipe\wireshark_extcap_20170305205941, id 0
    Section number: 1
    Interface id: 0 (\\.\pipe\wireshark_extcap_20170305205941)
        Interface name: \\.\pipe\wireshark_extcap_20170305205941
    Encapsulation type: USB packets with USBPcap header (152)
    Arrival Time: Mar  5, 2017 21:01:41.067755000 Малайское время (зима)
    UTC Arrival Time: Mar  5, 2017 13:01:41.067755000 UTC
    Epoch Arrival Time: 1488718901.067755000
    [Time shift for this packet: 0.000000000 seconds]
    [Time delta from previous captured frame: 0.000000000 seconds]
    [Time delta from previous displayed frame: 0.000000000 seconds]
    [Time since reference or first frame: 5.000000 milliseconds]
    Frame Number: 19
    Frame Length: 36 bytes (288 bits)
    Capture Length: 36 bytes (288 bits)
    [Frame is marked: False]
    [Frame is ignored: False]
    [Protocols in frame: usb:usbhub]
    Character encoding: ASCII (0)
USB URB
    [Source: host]
    [Destination: 4.1.0]
    USBPcap pseudoheader length: 28
    IRP ID: 0xfffffa8009be5260
    IRP USBD_STATUS: USBD_STATUS_SUCCESS (0x00000000)
    URB Function: URB_FUNCTION_CONTROL_TRANSFER_EX (0x0032)
    IRP information: 0x00, Direction: FDO -> PDO
        0000 000. = Reserved: 0x00
        .... ...0 = Direction: FDO -> PDO (0x0)
    URB bus id: 4
    Device address: 1
    Endpoint: 0x00, Direction: OUT
        0... .... = Direction: OUT (0)
        .... 0000 = Endpoint number: 0
    URB transfer type: URB_CONTROL (0x02)
    Packet Data Length: 8
    [Response in: 20]
    Control transfer stage: Setup (0)
    [bInterfaceClass: Unknown (0xffff)]
Setup Data
    bmRequestType: 0x23
        0... .... = Direction: Host-to-device
        .01. .... = Type: Class (0x1)
        ...0 0011 = Recipient: Other (0x03)
    bRequest: SET_FEATURE (0x03)
    wValue: 0x0008
        PortFeatureSelector: PORT_POWER (8)
    wIndex: 3
        Port: 3
        PortSelector: 0
    wLength: 0
        (zero): 0

0.005000
0000  1c 00 60 52 be 09 80 fa ff ff 00 00 00 00 32 00   ..`R..........2.
0010  00 04 00 01 00 00 02 08 00 00 00 00 23 03 08 00   ............#...
0020  03 00 00 00                                       ....

No.     Time           Source                Destination           Protocol Length Info
     20 0.005000       4.1.0                 host                  USB      28     URB_CONTROL status

Frame 20: Packet, 28 bytes on wire (224 bits), 28 bytes captured (224 bits) on interface \\.\pipe\wireshark_extcap_20170305205941, id 0
    Section number: 1
    Interface id: 0 (\\.\pipe\wireshark_extcap_20170305205941)
        Interface name: \\.\pipe\wireshark_extcap_20170305205941
    Encapsulation type: USB packets with USBPcap header (152)
    Arrival Time: Mar  5, 2017 21:01:41.067755000 Малайское время (зима)
    UTC Arrival Time: Mar  5, 2017 13:01:41.067755000 UTC
    Epoch Arrival Time: 1488718901.067755000
    [Time shift for this packet: 0.000000000 seconds]
    [Time delta from previous captured frame: 0.000000000 seconds]
    [Time delta from previous displayed frame: 0.000000000 seconds]
    [Time since reference or first frame: 5.000000 milliseconds]
    Frame Number: 20
    Frame Length: 28 bytes (224 bits)
    Capture Length: 28 bytes (224 bits)
    [Frame is marked: False]
    [Frame is ignored: False]
    [Protocols in frame: usb]
    Character encoding: ASCII (0)
USB URB
    [Source: 4.1.0]
    [Destination: host]
    USBPcap pseudoheader length: 28
    IRP ID: 0xfffffa8009be5260
    IRP USBD_STATUS: USBD_STATUS_SUCCESS (0x00000000)
    URB Function: URB_FUNCTION_CONTROL_TRANSFER_EX (0x0032)
    IRP information: 0x01, Direction: PDO -> FDO
        0000 000. = Reserved: 0x00
        .... ...1 = Direction: PDO -> FDO (0x1)
    URB bus id: 4
    Device address: 1
    Endpoint: 0x00, Direction: OUT
        0... .... = Direction: OUT (0)
        .... 0000 = Endpoint number: 0
    URB transfer type: URB_CONTROL (0x02)
    Packet Data Length: 0
    [Request in: 19]
    [Time from request: 0.000000000 seconds]
    Control transfer stage: Status (2)

0.005000
0000  1c 00 60 52 be 09 80 fa ff ff 00 00 00 00 32 00   ..`R..........2.
0010  01 04 00 01 00 00 02 00 00 00 00 02               ............

No.     Time           Source                Destination           Protocol Length Info
     21 0.005000       host                  4.1.0                 USBHUB   36     SET_FEATURE Request    [Port 4: PORT_POWER]

Frame 21: Packet, 36 bytes on wire (288 bits), 36 bytes captured (288 bits) on interface \\.\pipe\wireshark_extcap_20170305205941, id 0
    Section number: 1
    Interface id: 0 (\\.\pipe\wireshark_extcap_20170305205941)
        Interface name: \\.\pipe\wireshark_extcap_20170305205941
    Encapsulation type: USB packets with USBPcap header (152)
    Arrival Time: Mar  5, 2017 21:01:41.067755000 Малайское время (зима)
    UTC Arrival Time: Mar  5, 2017 13:01:41.067755000 UTC
    Epoch Arrival Time: 1488718901.067755000
    [Time shift for this packet: 0.000000000 seconds]
    [Time delta from previous captured frame: 0.000000000 seconds]
    [Time delta from previous displayed frame: 0.000000000 seconds]
    [Time since reference or first frame: 5.000000 milliseconds]
    Frame Number: 21
    Frame Length: 36 bytes (288 bits)
    Capture Length: 36 bytes (288 bits)
    [Frame is marked: False]
    [Frame is ignored: False]
    [Protocols in frame: usb:usbhub]
    Character encoding: ASCII (0)
USB URB
    [Source: host]
    [Destination: 4.1.0]
    USBPcap pseudoheader length: 28
    IRP ID: 0xfffffa8009be5260
    IRP USBD_STATUS: USBD_STATUS_SUCCESS (0x00000000)
    URB Function: URB_FUNCTION_CONTROL_TRANSFER_EX (0x0032)
    IRP information: 0x00, Direction: FDO -> PDO
        0000 000. = Reserved: 0x00
        .... ...0 = Direction: FDO -> PDO (0x0)
    URB bus id: 4
    Device address: 1
    Endpoint: 0x00, Direction: OUT
        0... .... = Direction: OUT (0)
        .... 0000 = Endpoint number: 0
    URB transfer type: URB_CONTROL (0x02)
    Packet Data Length: 8
    [Response in: 22]
    Control transfer stage: Setup (0)
    [bInterfaceClass: Unknown (0xffff)]
Setup Data
    bmRequestType: 0x23
        0... .... = Direction: Host-to-device
        .01. .... = Type: Class (0x1)
        ...0 0011 = Recipient: Other (0x03)
    bRequest: SET_FEATURE (0x03)
    wValue: 0x0008
        PortFeatureSelector: PORT_POWER (8)
    wIndex: 4
        Port: 4
        PortSelector: 0
    wLength: 0
        (zero): 0

0.005000
0000  1c 00 60 52 be 09 80 fa ff ff 00 00 00 00 32 00   ..`R..........2.
0010  00 04 00 01 00 00 02 08 00 00 00 00 23 03 08 00   ............#...
0020  04 00 00 00                                       ....

No.     Time           Source                Destination           Protocol Length Info
     22 0.005000       4.1.0                 host                  USB      28     URB_CONTROL status

Frame 22: Packet, 28 bytes on wire (224 bits), 28 bytes captured (224 bits) on interface \\.\pipe\wireshark_extcap_20170305205941, id 0
    Section number: 1
    Interface id: 0 (\\.\pipe\wireshark_extcap_20170305205941)
        Interface name: \\.\pipe\wireshark_extcap_20170305205941
    Encapsulation type: USB packets with USBPcap header (152)
    Arrival Time: Mar  5, 2017 21:01:41.067755000 Малайское время (зима)
    UTC Arrival Time: Mar  5, 2017 13:01:41.067755000 UTC
    Epoch Arrival Time: 1488718901.067755000
    [Time shift for this packet: 0.000000000 seconds]
    [Time delta from previous captured frame: 0.000000000 seconds]
    [Time delta from previous displayed frame: 0.000000000 seconds]
    [Time since reference or first frame: 5.000000 milliseconds]
    Frame Number: 22
    Frame Length: 28 bytes (224 bits)
    Capture Length: 28 bytes (224 bits)
    [Frame is marked: False]
    [Frame is ignored: False]
    [Protocols in frame: usb]
    Character encoding: ASCII (0)
USB URB
    [Source: 4.1.0]
    [Destination: host]
    USBPcap pseudoheader length: 28
    IRP ID: 0xfffffa8009be5260
    IRP USBD_STATUS: USBD_STATUS_SUCCESS (0x00000000)
    URB Function: URB_FUNCTION_CONTROL_TRANSFER_EX (0x0032)
    IRP information: 0x01, Direction: PDO -> FDO
        0000 000. = Reserved: 0x00
        .... ...1 = Direction: PDO -> FDO (0x1)
    URB bus id: 4
    Device address: 1
    Endpoint: 0x00, Direction: OUT
        0... .... = Direction: OUT (0)
        .... 0000 = Endpoint number: 0
    URB transfer type: URB_CONTROL (0x02)
    Packet Data Length: 0
    [Request in: 21]
    [Time from request: 0.000000000 seconds]
    Control transfer stage: Status (2)

0.005000
0000  1c 00 60 52 be 09 80 fa ff ff 00 00 00 00 32 00   ..`R..........2.
0010  01 04 00 01 00 00 02 00 00 00 00 02               ............

No.     Time           Source                Destination           Protocol Length Info
     23 0.321018       host                  4.1.0                 USBHUB   36     GET_STATUS Request     [Port 1]

Frame 23: Packet, 36 bytes on wire (288 bits), 36 bytes captured (288 bits) on interface \\.\pipe\wireshark_extcap_20170305205941, id 0
    Section number: 1
    Interface id: 0 (\\.\pipe\wireshark_extcap_20170305205941)
        Interface name: \\.\pipe\wireshark_extcap_20170305205941
    Encapsulation type: USB packets with USBPcap header (152)
    Arrival Time: Mar  5, 2017 21:01:41.383773000 Малайское время (зима)
    UTC Arrival Time: Mar  5, 2017 13:01:41.383773000 UTC
    Epoch Arrival Time: 1488718901.383773000
    [Time shift for this packet: 0.000000000 seconds]
    [Time delta from previous captured frame: 316.018000 milliseconds]
    [Time delta from previous displayed frame: 316.018000 milliseconds]
    [Time since reference or first frame: 321.018000 milliseconds]
    Frame Number: 23
    Frame Length: 36 bytes (288 bits)
    Capture Length: 36 bytes (288 bits)
    [Frame is marked: False]
    [Frame is ignored: False]
    [Protocols in frame: usb:usbhub]
    Character encoding: ASCII (0)
USB URB
    [Source: host]
    [Destination: 4.1.0]
    USBPcap pseudoheader length: 28
    IRP ID: 0xfffffa8009be5260
    IRP USBD_STATUS: USBD_STATUS_SUCCESS (0x00000000)
    URB Function: URB_FUNCTION_CONTROL_TRANSFER_EX (0x0032)
    IRP information: 0x00, Direction: FDO -> PDO
        0000 000. = Reserved: 0x00
        .... ...0 = Direction: FDO -> PDO (0x0)
    URB bus id: 4
    Device address: 1
    Endpoint: 0x80, Direction: IN
        1... .... = Direction: IN (1)
        .... 0000 = Endpoint number: 0
    URB transfer type: URB_CONTROL (0x02)
    Packet Data Length: 8
    [Response in: 24]
    Control transfer stage: Setup (0)
    [bInterfaceClass: Unknown (0xffff)]
Setup Data
    bmRequestType: 0xa3
        1... .... = Direction: Device-to-host
        .01. .... = Type: Class (0x1)
        ...0 0011 = Recipient: Other (0x03)
    bRequest: GET_STATUS (0x00)
    wValue: 0x0000
        (zero): 0
    wIndex: 1
        Port: 1
    wLength: 4

0.321018
0000  1c 00 60 52 be 09 80 fa ff ff 00 00 00 00 32 00   ..`R..........2.
0010  00 04 00 01 00 80 02 08 00 00 00 00 a3 00 00 00   ................
0020  01 00 04 00                                       ....

No.     Time           Source                Destination           Protocol Length Info
     24 0.322018       4.1.0                 host                  USBHUB   32     GET_STATUS Response    [Port 1]

Frame 24: Packet, 32 bytes on wire (256 bits), 32 bytes captured (256 bits) on interface \\.\pipe\wireshark_extcap_20170305205941, id 0
    Section number: 1
    Interface id: 0 (\\.\pipe\wireshark_extcap_20170305205941)
        Interface name: \\.\pipe\wireshark_extcap_20170305205941
    Encapsulation type: USB packets with USBPcap header (152)
    Arrival Time: Mar  5, 2017 21:01:41.384773000 Малайское время (зима)
    UTC Arrival Time: Mar  5, 2017 13:01:41.384773000 UTC
    Epoch Arrival Time: 1488718901.384773000
    [Time shift for this packet: 0.000000000 seconds]
    [Time delta from previous captured frame: 1.000000 milliseconds]
    [Time delta from previous displayed frame: 1.000000 milliseconds]
    [Time since reference or first frame: 322.018000 milliseconds]
    Frame Number: 24
    Frame Length: 32 bytes (256 bits)
    Capture Length: 32 bytes (256 bits)
    [Frame is marked: False]
    [Frame is ignored: False]
    [Protocols in frame: usb:usbhub]
    Character encoding: ASCII (0)
USB URB
    [Source: 4.1.0]
    [Destination: host]
    USBPcap pseudoheader length: 28
    IRP ID: 0xfffffa8009be5260
    IRP USBD_STATUS: USBD_STATUS_SUCCESS (0x00000000)
    URB Function: URB_FUNCTION_CONTROL_TRANSFER_EX (0x0032)
    IRP information: 0x01, Direction: PDO -> FDO
        0000 000. = Reserved: 0x00
        .... ...1 = Direction: PDO -> FDO (0x1)
    URB bus id: 4
    Device address: 1
    Endpoint: 0x80, Direction: IN
        1... .... = Direction: IN (1)
        .... 0000 = Endpoint number: 0
    URB transfer type: URB_CONTROL (0x02)
    Packet Data Length: 4
    [Request in: 23]
    [Time from request: 1.000000 milliseconds]
    Control transfer stage: Data (1)
    [bInterfaceClass: Unknown (0xffff)]
Port Status: 0x0501, PORT_CONNECTION, PORT_POWER, PORT_HIGH_SPEED
    .... .... .... ...1 = PORT_CONNECTION: True
    .... .... .... ..0. = PORT_ENABLE: False
    .... .... .... .0.. = PORT_SUSPEND: False
    .... .... .... 0... = PORT_OVER_CURRENT: False
    .... .... ...0 .... = PORT_RESET: False
    .... ...1 .... .... = PORT_POWER: True
    .... ..0. .... .... = PORT_LOW_SPEED: False
    .... .1.. .... .... = PORT_HIGH_SPEED: True
    .... 0... .... .... = PORT_TEST: False
    ...0 .... .... .... = PORT_INDICATOR: Default colors
Port Change: 0x0001, C_PORT_CONNECTION
    .... .... .... ...1 = C_PORT_CONNECTION: True
    .... .... .... ..0. = C_PORT_ENABLE: False
    .... .... .... .0.. = C_PORT_SUSPEND: False
    .... .... .... 0... = C_PORT_OVER_CURRENT: False
    .... .... ...0 .... = C_PORT_RESET: False

0.322018
0000  1c 00 60 52 be 09 80 fa ff ff 00 00 00 00 32 00   ..`R..........2.
0010  01 04 00 01 00 80 02 04 00 00 00 01 01 05 01 00   ................

No.     Time           Source                Destination           Protocol Length Info
     25 0.322018       4.1.0                 host                  USB      28     URB_CONTROL status

Frame 25: Packet, 28 bytes on wire (224 bits), 28 bytes captured (224 bits) on interface \\.\pipe\wireshark_extcap_20170305205941, id 0
    Section number: 1
    Interface id: 0 (\\.\pipe\wireshark_extcap_20170305205941)
        Interface name: \\.\pipe\wireshark_extcap_20170305205941
    Encapsulation type: USB packets with USBPcap header (152)
    Arrival Time: Mar  5, 2017 21:01:41.384773000 Малайское время (зима)
    UTC Arrival Time: Mar  5, 2017 13:01:41.384773000 UTC
    Epoch Arrival Time: 1488718901.384773000
    [Time shift for this packet: 0.000000000 seconds]
    [Time delta from previous captured frame: 0.000000000 seconds]
    [Time delta from previous displayed frame: 0.000000000 seconds]
    [Time since reference or first frame: 322.018000 milliseconds]
    Frame Number: 25
    Frame Length: 28 bytes (224 bits)
    Capture Length: 28 bytes (224 bits)
    [Frame is marked: False]
    [Frame is ignored: False]
    [Protocols in frame: usb]
    Character encoding: ASCII (0)
USB URB
    [Source: 4.1.0]
    [Destination: host]
    USBPcap pseudoheader length: 28
    IRP ID: 0xfffffa8009be5260
    IRP USBD_STATUS: USBD_STATUS_SUCCESS (0x00000000)
    URB Function: URB_FUNCTION_CONTROL_TRANSFER_EX (0x0032)
    IRP information: 0x01, Direction: PDO -> FDO
        0000 000. = Reserved: 0x00
        .... ...1 = Direction: PDO -> FDO (0x1)
    URB bus id: 4
    Device address: 1
    Endpoint: 0x80, Direction: IN
        1... .... = Direction: IN (1)
        .... 0000 = Endpoint number: 0
    URB transfer type: URB_CONTROL (0x02)
    Packet Data Length: 0
    [Request in: 23]
    [Time from request: 1.000000 milliseconds]
    Control transfer stage: Status (2)

0.322018
0000  1c 00 60 52 be 09 80 fa ff ff 00 00 00 00 32 00   ..`R..........2.
0010  01 04 00 01 00 80 02 00 00 00 00 02               ............

No.     Time           Source                Destination           Protocol Length Info
     26 0.322018       host                  4.1.0                 USBHUB   36     GET_STATUS Request     [Port 2]

Frame 26: Packet, 36 bytes on wire (288 bits), 36 bytes captured (288 bits) on interface \\.\pipe\wireshark_extcap_20170305205941, id 0
    Section number: 1
    Interface id: 0 (\\.\pipe\wireshark_extcap_20170305205941)
        Interface name: \\.\pipe\wireshark_extcap_20170305205941
    Encapsulation type: USB packets with USBPcap header (152)
    Arrival Time: Mar  5, 2017 21:01:41.384773000 Малайское время (зима)
    UTC Arrival Time: Mar  5, 2017 13:01:41.384773000 UTC
    Epoch Arrival Time: 1488718901.384773000
    [Time shift for this packet: 0.000000000 seconds]
    [Time delta from previous captured frame: 0.000000000 seconds]
    [Time delta from previous displayed frame: 0.000000000 seconds]
    [Time since reference or first frame: 322.018000 milliseconds]
    Frame Number: 26
    Frame Length: 36 bytes (288 bits)
    Capture Length: 36 bytes (288 bits)
    [Frame is marked: False]
    [Frame is ignored: False]
    [Protocols in frame: usb:usbhub]
    Character encoding: ASCII (0)
USB URB
    [Source: host]
    [Destination: 4.1.0]
    USBPcap pseudoheader length: 28
    IRP ID: 0xfffffa8009be5260
    IRP USBD_STATUS: USBD_STATUS_SUCCESS (0x00000000)
    URB Function: URB_FUNCTION_CONTROL_TRANSFER_EX (0x0032)
    IRP information: 0x00, Direction: FDO -> PDO
        0000 000. = Reserved: 0x00
        .... ...0 = Direction: FDO -> PDO (0x0)
    URB bus id: 4
    Device address: 1
    Endpoint: 0x80, Direction: IN
        1... .... = Direction: IN (1)
        .... 0000 = Endpoint number: 0
    URB transfer type: URB_CONTROL (0x02)
    Packet Data Length: 8
    [Response in: 27]
    Control transfer stage: Setup (0)
    [bInterfaceClass: Unknown (0xffff)]
Setup Data
    bmRequestType: 0xa3
        1... .... = Direction: Device-to-host
        .01. .... = Type: Class (0x1)
        ...0 0011 = Recipient: Other (0x03)
    bRequest: GET_STATUS (0x00)
    wValue: 0x0000
        (zero): 0
    wIndex: 2
        Port: 2
    wLength: 4

0.322018
0000  1c 00 60 52 be 09 80 fa ff ff 00 00 00 00 32 00   ..`R..........2.
0010  00 04 00 01 00 80 02 08 00 00 00 00 a3 00 00 00   ................
0020  02 00 04 00                                       ....

No.     Time           Source                Destination           Protocol Length Info
     27 0.323018       4.1.0                 host                  USBHUB   32     GET_STATUS Response    [Port 2]

Frame 27: Packet, 32 bytes on wire (256 bits), 32 bytes captured (256 bits) on interface \\.\pipe\wireshark_extcap_20170305205941, id 0
    Section number: 1
    Interface id: 0 (\\.\pipe\wireshark_extcap_20170305205941)
        Interface name: \\.\pipe\wireshark_extcap_20170305205941
    Encapsulation type: USB packets with USBPcap header (152)
    Arrival Time: Mar  5, 2017 21:01:41.385773000 Малайское время (зима)
    UTC Arrival Time: Mar  5, 2017 13:01:41.385773000 UTC
    Epoch Arrival Time: 1488718901.385773000
    [Time shift for this packet: 0.000000000 seconds]
    [Time delta from previous captured frame: 1.000000 milliseconds]
    [Time delta from previous displayed frame: 1.000000 milliseconds]
    [Time since reference or first frame: 323.018000 milliseconds]
    Frame Number: 27
    Frame Length: 32 bytes (256 bits)
    Capture Length: 32 bytes (256 bits)
    [Frame is marked: False]
    [Frame is ignored: False]
    [Protocols in frame: usb:usbhub]
    Character encoding: ASCII (0)
USB URB
    [Source: 4.1.0]
    [Destination: host]
    USBPcap pseudoheader length: 28
    IRP ID: 0xfffffa8009be5260
    IRP USBD_STATUS: USBD_STATUS_SUCCESS (0x00000000)
    URB Function: URB_FUNCTION_CONTROL_TRANSFER_EX (0x0032)
    IRP information: 0x01, Direction: PDO -> FDO
        0000 000. = Reserved: 0x00
        .... ...1 = Direction: PDO -> FDO (0x1)
    URB bus id: 4
    Device address: 1
    Endpoint: 0x80, Direction: IN
        1... .... = Direction: IN (1)
        .... 0000 = Endpoint number: 0
    URB transfer type: URB_CONTROL (0x02)
    Packet Data Length: 4
    [Request in: 26]
    [Time from request: 1.000000 milliseconds]
    Control transfer stage: Data (1)
    [bInterfaceClass: Unknown (0xffff)]
Port Status: 0x0100, PORT_POWER
    .... .... .... ...0 = PORT_CONNECTION: False
    .... .... .... ..0. = PORT_ENABLE: False
    .... .... .... .0.. = PORT_SUSPEND: False
    .... .... .... 0... = PORT_OVER_CURRENT: False
    .... .... ...0 .... = PORT_RESET: False
    .... ...1 .... .... = PORT_POWER: True
    .... ..0. .... .... = PORT_LOW_SPEED: False
    .... .0.. .... .... = PORT_HIGH_SPEED: False
    .... 0... .... .... = PORT_TEST: False
    ...0 .... .... .... = PORT_INDICATOR: Default colors
Port Change: 0x0000
    .... .... .... ...0 = C_PORT_CONNECTION: False
    .... .... .... ..0. = C_PORT_ENABLE: False
    .... .... .... .0.. = C_PORT_SUSPEND: False
    .... .... .... 0... = C_PORT_OVER_CURRENT: False
    .... .... ...0 .... = C_PORT_RESET: False

0.323018
0000  1c 00 60 52 be 09 80 fa ff ff 00 00 00 00 32 00   ..`R..........2.
0010  01 04 00 01 00 80 02 04 00 00 00 01 00 01 00 00   ................

No.     Time           Source                Destination           Protocol Length Info
     28 0.323018       4.1.0                 host                  USB      28     URB_CONTROL status

Frame 28: Packet, 28 bytes on wire (224 bits), 28 bytes captured (224 bits) on interface \\.\pipe\wireshark_extcap_20170305205941, id 0
    Section number: 1
    Interface id: 0 (\\.\pipe\wireshark_extcap_20170305205941)
        Interface name: \\.\pipe\wireshark_extcap_20170305205941
    Encapsulation type: USB packets with USBPcap header (152)
    Arrival Time: Mar  5, 2017 21:01:41.385773000 Малайское время (зима)
    UTC Arrival Time: Mar  5, 2017 13:01:41.385773000 UTC
    Epoch Arrival Time: 1488718901.385773000
    [Time shift for this packet: 0.000000000 seconds]
    [Time delta from previous captured frame: 0.000000000 seconds]
    [Time delta from previous displayed frame: 0.000000000 seconds]
    [Time since reference or first frame: 323.018000 milliseconds]
    Frame Number: 28
    Frame Length: 28 bytes (224 bits)
    Capture Length: 28 bytes (224 bits)
    [Frame is marked: False]
    [Frame is ignored: False]
    [Protocols in frame: usb]
    Character encoding: ASCII (0)
USB URB
    [Source: 4.1.0]
    [Destination: host]
    USBPcap pseudoheader length: 28
    IRP ID: 0xfffffa8009be5260
    IRP USBD_STATUS: USBD_STATUS_SUCCESS (0x00000000)
    URB Function: URB_FUNCTION_CONTROL_TRANSFER_EX (0x0032)
    IRP information: 0x01, Direction: PDO -> FDO
        0000 000. = Reserved: 0x00
        .... ...1 = Direction: PDO -> FDO (0x1)
    URB bus id: 4
    Device address: 1
    Endpoint: 0x80, Direction: IN
        1... .... = Direction: IN (1)
        .... 0000 = Endpoint number: 0
    URB transfer type: URB_CONTROL (0x02)
    Packet Data Length: 0
    [Request in: 26]
    [Time from request: 1.000000 milliseconds]
    Control transfer stage: Status (2)

0.323018
0000  1c 00 60 52 be 09 80 fa ff ff 00 00 00 00 32 00   ..`R..........2.
0010  01 04 00 01 00 80 02 00 00 00 00 02               ............

No.     Time           Source                Destination           Protocol Length Info
     29 0.323018       host                  4.1.0                 USBHUB   36     GET_STATUS Request     [Port 3]

Frame 29: Packet, 36 bytes on wire (288 bits), 36 bytes captured (288 bits) on interface \\.\pipe\wireshark_extcap_20170305205941, id 0
    Section number: 1
    Interface id: 0 (\\.\pipe\wireshark_extcap_20170305205941)
        Interface name: \\.\pipe\wireshark_extcap_20170305205941
    Encapsulation type: USB packets with USBPcap header (152)
    Arrival Time: Mar  5, 2017 21:01:41.385773000 Малайское время (зима)
    UTC Arrival Time: Mar  5, 2017 13:01:41.385773000 UTC
    Epoch Arrival Time: 1488718901.385773000
    [Time shift for this packet: 0.000000000 seconds]
    [Time delta from previous captured frame: 0.000000000 seconds]
    [Time delta from previous displayed frame: 0.000000000 seconds]
    [Time since reference or first frame: 323.018000 milliseconds]
    Frame Number: 29
    Frame Length: 36 bytes (288 bits)
    Capture Length: 36 bytes (288 bits)
    [Frame is marked: False]
    [Frame is ignored: False]
    [Protocols in frame: usb:usbhub]
    Character encoding: ASCII (0)
USB URB
    [Source: host]
    [Destination: 4.1.0]
    USBPcap pseudoheader length: 28
    IRP ID: 0xfffffa8009be5260
    IRP USBD_STATUS: USBD_STATUS_SUCCESS (0x00000000)
    URB Function: URB_FUNCTION_CONTROL_TRANSFER_EX (0x0032)
    IRP information: 0x00, Direction: FDO -> PDO
        0000 000. = Reserved: 0x00
        .... ...0 = Direction: FDO -> PDO (0x0)
    URB bus id: 4
    Device address: 1
    Endpoint: 0x80, Direction: IN
        1... .... = Direction: IN (1)
        .... 0000 = Endpoint number: 0
    URB transfer type: URB_CONTROL (0x02)
    Packet Data Length: 8
    [Response in: 30]
    Control transfer stage: Setup (0)
    [bInterfaceClass: Unknown (0xffff)]
Setup Data
    bmRequestType: 0xa3
        1... .... = Direction: Device-to-host
        .01. .... = Type: Class (0x1)
        ...0 0011 = Recipient: Other (0x03)
    bRequest: GET_STATUS (0x00)
    wValue: 0x0000
        (zero): 0
    wIndex: 3
        Port: 3
    wLength: 4

0.323018
0000  1c 00 60 52 be 09 80 fa ff ff 00 00 00 00 32 00   ..`R..........2.
0010  00 04 00 01 00 80 02 08 00 00 00 00 a3 00 00 00   ................
0020  03 00 04 00                                       ....

No.     Time           Source                Destination           Protocol Length Info
     30 0.324019       4.1.0                 host                  USBHUB   32     GET_STATUS Response    [Port 3]

Frame 30: Packet, 32 bytes on wire (256 bits), 32 bytes captured (256 bits) on interface \\.\pipe\wireshark_extcap_20170305205941, id 0
    Section number: 1
    Interface id: 0 (\\.\pipe\wireshark_extcap_20170305205941)
        Interface name: \\.\pipe\wireshark_extcap_20170305205941
    Encapsulation type: USB packets with USBPcap header (152)
    Arrival Time: Mar  5, 2017 21:01:41.386774000 Малайское время (зима)
    UTC Arrival Time: Mar  5, 2017 13:01:41.386774000 UTC
    Epoch Arrival Time: 1488718901.386774000
    [Time shift for this packet: 0.000000000 seconds]
    [Time delta from previous captured frame: 1.001000 milliseconds]
    [Time delta from previous displayed frame: 1.001000 milliseconds]
    [Time since reference or first frame: 324.019000 milliseconds]
    Frame Number: 30
    Frame Length: 32 bytes (256 bits)
    Capture Length: 32 bytes (256 bits)
    [Frame is marked: False]
    [Frame is ignored: False]
    [Protocols in frame: usb:usbhub]
    Character encoding: ASCII (0)
USB URB
    [Source: 4.1.0]
    [Destination: host]
    USBPcap pseudoheader length: 28
    IRP ID: 0xfffffa8009be5260
    IRP USBD_STATUS: USBD_STATUS_SUCCESS (0x00000000)
    URB Function: URB_FUNCTION_CONTROL_TRANSFER_EX (0x0032)
    IRP information: 0x01, Direction: PDO -> FDO
        0000 000. = Reserved: 0x00
        .... ...1 = Direction: PDO -> FDO (0x1)
    URB bus id: 4
    Device address: 1
    Endpoint: 0x80, Direction: IN
        1... .... = Direction: IN (1)
        .... 0000 = Endpoint number: 0
    URB transfer type: URB_CONTROL (0x02)
    Packet Data Length: 4
    [Request in: 29]
    [Time from request: 1.001000 milliseconds]
    Control transfer stage: Data (1)
    [bInterfaceClass: Unknown (0xffff)]
Port Status: 0x0100, PORT_POWER
    .... .... .... ...0 = PORT_CONNECTION: False
    .... .... .... ..0. = PORT_ENABLE: False
    .... .... .... .0.. = PORT_SUSPEND: False
    .... .... .... 0... = PORT_OVER_CURRENT: False
    .... .... ...0 .... = PORT_RESET: False
    .... ...1 .... .... = PORT_POWER: True
    .... ..0. .... .... = PORT_LOW_SPEED: False
    .... .0.. .... .... = PORT_HIGH_SPEED: False
    .... 0... .... .... = PORT_TEST: False
    ...0 .... .... .... = PORT_INDICATOR: Default colors
Port Change: 0x0000
    .... .... .... ...0 = C_PORT_CONNECTION: False
    .... .... .... ..0. = C_PORT_ENABLE: False
    .... .... .... .0.. = C_PORT_SUSPEND: False
    .... .... .... 0... = C_PORT_OVER_CURRENT: False
    .... .... ...0 .... = C_PORT_RESET: False

0.324019
0000  1c 00 60 52 be 09 80 fa ff ff 00 00 00 00 32 00   ..`R..........2.
0010  01 04 00 01 00 80 02 04 00 00 00 01 00 01 00 00   ................

No.     Time           Source                Destination           Protocol Length Info
     31 0.324019       4.1.0                 host                  USB      28     URB_CONTROL status

Frame 31: Packet, 28 bytes on wire (224 bits), 28 bytes captured (224 bits) on interface \\.\pipe\wireshark_extcap_20170305205941, id 0
    Section number: 1
    Interface id: 0 (\\.\pipe\wireshark_extcap_20170305205941)
        Interface name: \\.\pipe\wireshark_extcap_20170305205941
    Encapsulation type: USB packets with USBPcap header (152)
    Arrival Time: Mar  5, 2017 21:01:41.386774000 Малайское время (зима)
    UTC Arrival Time: Mar  5, 2017 13:01:41.386774000 UTC
    Epoch Arrival Time: 1488718901.386774000
    [Time shift for this packet: 0.000000000 seconds]
    [Time delta from previous captured frame: 0.000000000 seconds]
    [Time delta from previous displayed frame: 0.000000000 seconds]
    [Time since reference or first frame: 324.019000 milliseconds]
    Frame Number: 31
    Frame Length: 28 bytes (224 bits)
    Capture Length: 28 bytes (224 bits)
    [Frame is marked: False]
    [Frame is ignored: False]
    [Protocols in frame: usb]
    Character encoding: ASCII (0)
USB URB
    [Source: 4.1.0]
    [Destination: host]
    USBPcap pseudoheader length: 28
    IRP ID: 0xfffffa8009be5260
    IRP USBD_STATUS: USBD_STATUS_SUCCESS (0x00000000)
    URB Function: URB_FUNCTION_CONTROL_TRANSFER_EX (0x0032)
    IRP information: 0x01, Direction: PDO -> FDO
        0000 000. = Reserved: 0x00
        .... ...1 = Direction: PDO -> FDO (0x1)
    URB bus id: 4
    Device address: 1
    Endpoint: 0x80, Direction: IN
        1... .... = Direction: IN (1)
        .... 0000 = Endpoint number: 0
    URB transfer type: URB_CONTROL (0x02)
    Packet Data Length: 0
    [Request in: 29]
    [Time from request: 1.001000 milliseconds]
    Control transfer stage: Status (2)

0.324019
0000  1c 00 60 52 be 09 80 fa ff ff 00 00 00 00 32 00   ..`R..........2.
0010  01 04 00 01 00 80 02 00 00 00 00 02               ............

No.     Time           Source                Destination           Protocol Length Info
     32 0.324019       host                  4.1.0                 USBHUB   36     GET_STATUS Request     [Port 4]

Frame 32: Packet, 36 bytes on wire (288 bits), 36 bytes captured (288 bits) on interface \\.\pipe\wireshark_extcap_20170305205941, id 0
    Section number: 1
    Interface id: 0 (\\.\pipe\wireshark_extcap_20170305205941)
        Interface name: \\.\pipe\wireshark_extcap_20170305205941
    Encapsulation type: USB packets with USBPcap header (152)
    Arrival Time: Mar  5, 2017 21:01:41.386774000 Малайское время (зима)
    UTC Arrival Time: Mar  5, 2017 13:01:41.386774000 UTC
    Epoch Arrival Time: 1488718901.386774000
    [Time shift for this packet: 0.000000000 seconds]
    [Time delta from previous captured frame: 0.000000000 seconds]
    [Time delta from previous displayed frame: 0.000000000 seconds]
    [Time since reference or first frame: 324.019000 milliseconds]
    Frame Number: 32
    Frame Length: 36 bytes (288 bits)
    Capture Length: 36 bytes (288 bits)
    [Frame is marked: False]
    [Frame is ignored: False]
    [Protocols in frame: usb:usbhub]
    Character encoding: ASCII (0)
USB URB
    [Source: host]
    [Destination: 4.1.0]
    USBPcap pseudoheader length: 28
    IRP ID: 0xfffffa8009be5260
    IRP USBD_STATUS: USBD_STATUS_SUCCESS (0x00000000)
    URB Function: URB_FUNCTION_CONTROL_TRANSFER_EX (0x0032)
    IRP information: 0x00, Direction: FDO -> PDO
        0000 000. = Reserved: 0x00
        .... ...0 = Direction: FDO -> PDO (0x0)
    URB bus id: 4
    Device address: 1
    Endpoint: 0x80, Direction: IN
        1... .... = Direction: IN (1)
        .... 0000 = Endpoint number: 0
    URB transfer type: URB_CONTROL (0x02)
    Packet Data Length: 8
    [Response in: 33]
    Control transfer stage: Setup (0)
    [bInterfaceClass: Unknown (0xffff)]
Setup Data
    bmRequestType: 0xa3
        1... .... = Direction: Device-to-host
        .01. .... = Type: Class (0x1)
        ...0 0011 = Recipient: Other (0x03)
    bRequest: GET_STATUS (0x00)
    wValue: 0x0000
        (zero): 0
    wIndex: 4
        Port: 4
    wLength: 4

0.324019
0000  1c 00 60 52 be 09 80 fa ff ff 00 00 00 00 32 00   ..`R..........2.
0010  00 04 00 01 00 80 02 08 00 00 00 00 a3 00 00 00   ................
0020  04 00 04 00                                       ....

No.     Time           Source                Destination           Protocol Length Info
     33 0.325019       4.1.0                 host                  USBHUB   32     GET_STATUS Response    [Port 4]

Frame 33: Packet, 32 bytes on wire (256 bits), 32 bytes captured (256 bits) on interface \\.\pipe\wireshark_extcap_20170305205941, id 0
    Section number: 1
    Interface id: 0 (\\.\pipe\wireshark_extcap_20170305205941)
        Interface name: \\.\pipe\wireshark_extcap_20170305205941
    Encapsulation type: USB packets with USBPcap header (152)
    Arrival Time: Mar  5, 2017 21:01:41.387774000 Малайское время (зима)
    UTC Arrival Time: Mar  5, 2017 13:01:41.387774000 UTC
    Epoch Arrival Time: 1488718901.387774000
    [Time shift for this packet: 0.000000000 seconds]
    [Time delta from previous captured frame: 1.000000 milliseconds]
    [Time delta from previous displayed frame: 1.000000 milliseconds]
    [Time since reference or first frame: 325.019000 milliseconds]
    Frame Number: 33
    Frame Length: 32 bytes (256 bits)
    Capture Length: 32 bytes (256 bits)
    [Frame is marked: False]
    [Frame is ignored: False]
    [Protocols in frame: usb:usbhub]
    Character encoding: ASCII (0)
USB URB
    [Source: 4.1.0]
    [Destination: host]
    USBPcap pseudoheader length: 28
    IRP ID: 0xfffffa8009be5260
    IRP USBD_STATUS: USBD_STATUS_SUCCESS (0x00000000)
    URB Function: URB_FUNCTION_CONTROL_TRANSFER_EX (0x0032)
    IRP information: 0x01, Direction: PDO -> FDO
        0000 000. = Reserved: 0x00
        .... ...1 = Direction: PDO -> FDO (0x1)
    URB bus id: 4
    Device address: 1
    Endpoint: 0x80, Direction: IN
        1... .... = Direction: IN (1)
        .... 0000 = Endpoint number: 0
    URB transfer type: URB_CONTROL (0x02)
    Packet Data Length: 4
    [Request in: 32]
    [Time from request: 1.000000 milliseconds]
    Control transfer stage: Data (1)
    [bInterfaceClass: Unknown (0xffff)]
Port Status: 0x0100, PORT_POWER
    .... .... .... ...0 = PORT_CONNECTION: False
    .... .... .... ..0. = PORT_ENABLE: False
    .... .... .... .0.. = PORT_SUSPEND: False
    .... .... .... 0... = PORT_OVER_CURRENT: False
    .... .... ...0 .... = PORT_RESET: False
    .... ...1 .... .... = PORT_POWER: True
    .... ..0. .... .... = PORT_LOW_SPEED: False
    .... .0.. .... .... = PORT_HIGH_SPEED: False
    .... 0... .... .... = PORT_TEST: False
    ...0 .... .... .... = PORT_INDICATOR: Default colors
Port Change: 0x0000
    .... .... .... ...0 = C_PORT_CONNECTION: False
    .... .... .... ..0. = C_PORT_ENABLE: False
    .... .... .... .0.. = C_PORT_SUSPEND: False
    .... .... .... 0... = C_PORT_OVER_CURRENT: False
    .... .... ...0 .... = C_PORT_RESET: False

0.325019
0000  1c 00 60 52 be 09 80 fa ff ff 00 00 00 00 32 00   ..`R..........2.
0010  01 04 00 01 00 80 02 04 00 00 00 01 00 01 00 00   ................

No.     Time           Source                Destination           Protocol Length Info
     34 0.325019       4.1.0                 host                  USB      28     URB_CONTROL status

Frame 34: Packet, 28 bytes on wire (224 bits), 28 bytes captured (224 bits) on interface \\.\pipe\wireshark_extcap_20170305205941, id 0
    Section number: 1
    Interface id: 0 (\\.\pipe\wireshark_extcap_20170305205941)
        Interface name: \\.\pipe\wireshark_extcap_20170305205941
    Encapsulation type: USB packets with USBPcap header (152)
    Arrival Time: Mar  5, 2017 21:01:41.387774000 Малайское время (зима)
    UTC Arrival Time: Mar  5, 2017 13:01:41.387774000 UTC
    Epoch Arrival Time: 1488718901.387774000
    [Time shift for this packet: 0.000000000 seconds]
    [Time delta from previous captured frame: 0.000000000 seconds]
    [Time delta from previous displayed frame: 0.000000000 seconds]
    [Time since reference or first frame: 325.019000 milliseconds]
    Frame Number: 34
    Frame Length: 28 bytes (224 bits)
    Capture Length: 28 bytes (224 bits)
    [Frame is marked: False]
    [Frame is ignored: False]
    [Protocols in frame: usb]
    Character encoding: ASCII (0)
USB URB
    [Source: 4.1.0]
    [Destination: host]
    USBPcap pseudoheader length: 28
    IRP ID: 0xfffffa8009be5260
    IRP USBD_STATUS: USBD_STATUS_SUCCESS (0x00000000)
    URB Function: URB_FUNCTION_CONTROL_TRANSFER_EX (0x0032)
    IRP information: 0x01, Direction: PDO -> FDO
        0000 000. = Reserved: 0x00
        .... ...1 = Direction: PDO -> FDO (0x1)
    URB bus id: 4
    Device address: 1
    Endpoint: 0x80, Direction: IN
        1... .... = Direction: IN (1)
        .... 0000 = Endpoint number: 0
    URB transfer type: URB_CONTROL (0x02)
    Packet Data Length: 0
    [Request in: 32]
    [Time from request: 1.000000 milliseconds]
    Control transfer stage: Status (2)

0.325019
0000  1c 00 60 52 be 09 80 fa ff ff 00 00 00 00 32 00   ..`R..........2.
0010  01 04 00 01 00 80 02 00 00 00 00 02               ............

No.     Time           Source                Destination           Protocol Length Info
     35 0.328019       4.1.1                 host                  USB      28     URB_INTERRUPT in

Frame 35: Packet, 28 bytes on wire (224 bits), 28 bytes captured (224 bits) on interface \\.\pipe\wireshark_extcap_20170305205941, id 0
    Section number: 1
    Interface id: 0 (\\.\pipe\wireshark_extcap_20170305205941)
        Interface name: \\.\pipe\wireshark_extcap_20170305205941
    Encapsulation type: USB packets with USBPcap header (152)
    Arrival Time: Mar  5, 2017 21:01:41.390774000 Малайское время (зима)
    UTC Arrival Time: Mar  5, 2017 13:01:41.390774000 UTC
    Epoch Arrival Time: 1488718901.390774000
    [Time shift for this packet: 0.000000000 seconds]
    [Time delta from previous captured frame: 3.000000 milliseconds]
    [Time delta from previous displayed frame: 3.000000 milliseconds]
    [Time since reference or first frame: 328.019000 milliseconds]
    Frame Number: 35
    Frame Length: 28 bytes (224 bits)
    Capture Length: 28 bytes (224 bits)
    [Frame is marked: False]
    [Frame is ignored: False]
    [Protocols in frame: usb]
    Character encoding: ASCII (0)
USB URB
    [Source: 4.1.1]
    [Destination: host]
    USBPcap pseudoheader length: 27
    IRP ID: 0xfffffa800f46d9c0
    IRP USBD_STATUS: USBD_STATUS_SUCCESS (0x00000000)
    URB Function: URB_FUNCTION_BULK_OR_INTERRUPT_TRANSFER (0x0009)
    IRP information: 0x01, Direction: PDO -> FDO
        0000 000. = Reserved: 0x00
        .... ...1 = Direction: PDO -> FDO (0x1)
    URB bus id: 4
    Device address: 1
    Endpoint: 0x81, Direction: IN
        1... .... = Direction: IN (1)
        .... 0001 = Endpoint number: 1
    URB transfer type: URB_INTERRUPT (0x01)
    Packet Data Length: 1
    [bInterfaceClass: Hub (0x09)]
Leftover Capture Data: 02

0.328019
0000  1b 00 c0 d9 46 0f 80 fa ff ff 00 00 00 00 09 00   ....F...........
0010  01 04 00 01 00 81 01 01 00 00 00 02               ............

No.     Time           Source                Destination           Protocol Length Info
     36 0.328019       host                  4.1.0                 USBHUB   36     GET_STATUS Request     [Port 1]

Frame 36: Packet, 36 bytes on wire (288 bits), 36 bytes captured (288 bits) on interface \\.\pipe\wireshark_extcap_20170305205941, id 0
    Section number: 1
    Interface id: 0 (\\.\pipe\wireshark_extcap_20170305205941)
        Interface name: \\.\pipe\wireshark_extcap_20170305205941
    Encapsulation type: USB packets with USBPcap header (152)
    Arrival Time: Mar  5, 2017 21:01:41.390774000 Малайское время (зима)
    UTC Arrival Time: Mar  5, 2017 13:01:41.390774000 UTC
    Epoch Arrival Time: 1488718901.390774000
    [Time shift for this packet: 0.000000000 seconds]
    [Time delta from previous captured frame: 0.000000000 seconds]
    [Time delta from previous displayed frame: 0.000000000 seconds]
    [Time since reference or first frame: 328.019000 milliseconds]
    Frame Number: 36
    Frame Length: 36 bytes (288 bits)
    Capture Length: 36 bytes (288 bits)
    [Frame is marked: False]
    [Frame is ignored: False]
    [Protocols in frame: usb:usbhub]
    Character encoding: ASCII (0)
USB URB
    [Source: host]
    [Destination: 4.1.0]
    USBPcap pseudoheader length: 28
    IRP ID: 0xfffffa800e849b00
    IRP USBD_STATUS: USBD_STATUS_SUCCESS (0x00000000)
    URB Function: URB_FUNCTION_CONTROL_TRANSFER_EX (0x0032)
    IRP information: 0x00, Direction: FDO -> PDO
        0000 000. = Reserved: 0x00
        .... ...0 = Direction: FDO -> PDO (0x0)
    URB bus id: 4
    Device address: 1
    Endpoint: 0x80, Direction: IN
        1... .... = Direction: IN (1)
        .... 0000 = Endpoint number: 0
    URB transfer type: URB_CONTROL (0x02)
    Packet Data Length: 8
    [Response in: 37]
    Control transfer stage: Setup (0)
    [bInterfaceClass: Unknown (0xffff)]
Setup Data
    bmRequestType: 0xa3
        1... .... = Direction: Device-to-host
        .01. .... = Type: Class (0x1)
        ...0 0011 = Recipient: Other (0x03)
    bRequest: GET_STATUS (0x00)
    wValue: 0x0000
        (zero): 0
    wIndex: 1
        Port: 1
    wLength: 4

0.328019
0000  1c 00 00 9b 84 0e 80 fa ff ff 00 00 00 00 32 00   ..............2.
0010  00 04 00 01 00 80 02 08 00 00 00 00 a3 00 00 00   ................
0020  01 00 04 00                                       ....

No.     Time           Source                Destination           Protocol Length Info
     37 0.329019       4.1.0                 host                  USBHUB   32     GET_STATUS Response    [Port 1]

Frame 37: Packet, 32 bytes on wire (256 bits), 32 bytes captured (256 bits) on interface \\.\pipe\wireshark_extcap_20170305205941, id 0
    Section number: 1
    Interface id: 0 (\\.\pipe\wireshark_extcap_20170305205941)
        Interface name: \\.\pipe\wireshark_extcap_20170305205941
    Encapsulation type: USB packets with USBPcap header (152)
    Arrival Time: Mar  5, 2017 21:01:41.391774000 Малайское время (зима)
    UTC Arrival Time: Mar  5, 2017 13:01:41.391774000 UTC
    Epoch Arrival Time: 1488718901.391774000
    [Time shift for this packet: 0.000000000 seconds]
    [Time delta from previous captured frame: 1.000000 milliseconds]
    [Time delta from previous displayed frame: 1.000000 milliseconds]
    [Time since reference or first frame: 329.019000 milliseconds]
    Frame Number: 37
    Frame Length: 32 bytes (256 bits)
    Capture Length: 32 bytes (256 bits)
    [Frame is marked: False]
    [Frame is ignored: False]
    [Protocols in frame: usb:usbhub]
    Character encoding: ASCII (0)
USB URB
    [Source: 4.1.0]
    [Destination: host]
    USBPcap pseudoheader length: 28
    IRP ID: 0xfffffa800e849b00
    IRP USBD_STATUS: USBD_STATUS_SUCCESS (0x00000000)
    URB Function: URB_FUNCTION_CONTROL_TRANSFER_EX (0x0032)
    IRP information: 0x01, Direction: PDO -> FDO
        0000 000. = Reserved: 0x00
        .... ...1 = Direction: PDO -> FDO (0x1)
    URB bus id: 4
    Device address: 1
    Endpoint: 0x80, Direction: IN
        1... .... = Direction: IN (1)
        .... 0000 = Endpoint number: 0
    URB transfer type: URB_CONTROL (0x02)
    Packet Data Length: 4
    [Request in: 36]
    [Time from request: 1.000000 milliseconds]
    Control transfer stage: Data (1)
    [bInterfaceClass: Unknown (0xffff)]
Port Status: 0x0501, PORT_CONNECTION, PORT_POWER, PORT_HIGH_SPEED
    .... .... .... ...1 = PORT_CONNECTION: True
    .... .... .... ..0. = PORT_ENABLE: False
    .... .... .... .0.. = PORT_SUSPEND: False
    .... .... .... 0... = PORT_OVER_CURRENT: False
    .... .... ...0 .... = PORT_RESET: False
    .... ...1 .... .... = PORT_POWER: True
    .... ..0. .... .... = PORT_LOW_SPEED: False
    .... .1.. .... .... = PORT_HIGH_SPEED: True
    .... 0... .... .... = PORT_TEST: False
    ...0 .... .... .... = PORT_INDICATOR: Default colors
Port Change: 0x0001, C_PORT_CONNECTION
    .... .... .... ...1 = C_PORT_CONNECTION: True
    .... .... .... ..0. = C_PORT_ENABLE: False
    .... .... .... .0.. = C_PORT_SUSPEND: False
    .... .... .... 0... = C_PORT_OVER_CURRENT: False
    .... .... ...0 .... = C_PORT_RESET: False

0.329019
0000  1c 00 00 9b 84 0e 80 fa ff ff 00 00 00 00 32 00   ..............2.
0010  01 04 00 01 00 80 02 04 00 00 00 01 01 05 01 00   ................

No.     Time           Source                Destination           Protocol Length Info
     38 0.329019       4.1.0                 host                  USB      28     URB_CONTROL status

Frame 38: Packet, 28 bytes on wire (224 bits), 28 bytes captured (224 bits) on interface \\.\pipe\wireshark_extcap_20170305205941, id 0
    Section number: 1
    Interface id: 0 (\\.\pipe\wireshark_extcap_20170305205941)
        Interface name: \\.\pipe\wireshark_extcap_20170305205941
    Encapsulation type: USB packets with USBPcap header (152)
    Arrival Time: Mar  5, 2017 21:01:41.391774000 Малайское время (зима)
    UTC Arrival Time: Mar  5, 2017 13:01:41.391774000 UTC
    Epoch Arrival Time: 1488718901.391774000
    [Time shift for this packet: 0.000000000 seconds]
    [Time delta from previous captured frame: 0.000000000 seconds]
    [Time delta from previous displayed frame: 0.000000000 seconds]
    [Time since reference or first frame: 329.019000 milliseconds]
    Frame Number: 38
    Frame Length: 28 bytes (224 bits)
    Capture Length: 28 bytes (224 bits)
    [Frame is marked: False]
    [Frame is ignored: False]
    [Protocols in frame: usb]
    Character encoding: ASCII (0)
USB URB
    [Source: 4.1.0]
    [Destination: host]
    USBPcap pseudoheader length: 28
    IRP ID: 0xfffffa800e849b00
    IRP USBD_STATUS: USBD_STATUS_SUCCESS (0x00000000)
    URB Function: URB_FUNCTION_CONTROL_TRANSFER_EX (0x0032)
    IRP information: 0x01, Direction: PDO -> FDO
        0000 000. = Reserved: 0x00
        .... ...1 = Direction: PDO -> FDO (0x1)
    URB bus id: 4
    Device address: 1
    Endpoint: 0x80, Direction: IN
        1... .... = Direction: IN (1)
        .... 0000 = Endpoint number: 0
    URB transfer type: URB_CONTROL (0x02)
    Packet Data Length: 0
    [Request in: 36]
    [Time from request: 1.000000 milliseconds]
    Control transfer stage: Status (2)

0.329019
0000  1c 00 00 9b 84 0e 80 fa ff ff 00 00 00 00 32 00   ..............2.
0010  01 04 00 01 00 80 02 00 00 00 00 02               ............

No.     Time           Source                Destination           Protocol Length Info
     39 0.329019       host                  4.1.0                 USBHUB   36     CLEAR_FEATURE Request  [Port 1: C_PORT_CONNECTION]

Frame 39: Packet, 36 bytes on wire (288 bits), 36 bytes captured (288 bits) on interface \\.\pipe\wireshark_extcap_20170305205941, id 0
    Section number: 1
    Interface id: 0 (\\.\pipe\wireshark_extcap_20170305205941)
        Interface name: \\.\pipe\wireshark_extcap_20170305205941
    Encapsulation type: USB packets with USBPcap header (152)
    Arrival Time: Mar  5, 2017 21:01:41.391774000 Малайское время (зима)
    UTC Arrival Time: Mar  5, 2017 13:01:41.391774000 UTC
    Epoch Arrival Time: 1488718901.391774000
    [Time shift for this packet: 0.000000000 seconds]
    [Time delta from previous captured frame: 0.000000000 seconds]
    [Time delta from previous displayed frame: 0.000000000 seconds]
    [Time since reference or first frame: 329.019000 milliseconds]
    Frame Number: 39
    Frame Length: 36 bytes (288 bits)
    Capture Length: 36 bytes (288 bits)
    [Frame is marked: False]
    [Frame is ignored: False]
    [Protocols in frame: usb:usbhub]
    Character encoding: ASCII (0)
USB URB
    [Source: host]
    [Destination: 4.1.0]
    USBPcap pseudoheader length: 28
    IRP ID: 0xfffffa800e849b00
    IRP USBD_STATUS: USBD_STATUS_SUCCESS (0x00000000)
    URB Function: URB_FUNCTION_CONTROL_TRANSFER_EX (0x0032)
    IRP information: 0x00, Direction: FDO -> PDO
        0000 000. = Reserved: 0x00
        .... ...0 = Direction: FDO -> PDO (0x0)
    URB bus id: 4
    Device address: 1
    Endpoint: 0x00, Direction: OUT
        0... .... = Direction: OUT (0)
        .... 0000 = Endpoint number: 0
    URB transfer type: URB_CONTROL (0x02)
    Packet Data Length: 8
    [Response in: 40]
    Control transfer stage: Setup (0)
    [bInterfaceClass: Unknown (0xffff)]
Setup Data
    bmRequestType: 0x23
        0... .... = Direction: Host-to-device
        .01. .... = Type: Class (0x1)
        ...0 0011 = Recipient: Other (0x03)
    bRequest: CLEAR_FEATURE (0x01)
    wValue: 0x0010
        PortFeatureSelector: C_PORT_CONNECTION (16)
    wIndex: 1
        Port: 1
        PortSelector: 0
    wLength: 0
        (zero): 0

0.329019
0000  1c 00 00 9b 84 0e 80 fa ff ff 00 00 00 00 32 00   ..............2.
0010  00 04 00 01 00 00 02 08 00 00 00 00 23 01 10 00   ............#...
0020  01 00 00 00                                       ....

No.     Time           Source                Destination           Protocol Length Info
     40 0.329019       4.1.0                 host                  USB      28     URB_CONTROL status

Frame 40: Packet, 28 bytes on wire (224 bits), 28 bytes captured (224 bits) on interface \\.\pipe\wireshark_extcap_20170305205941, id 0
    Section number: 1
    Interface id: 0 (\\.\pipe\wireshark_extcap_20170305205941)
        Interface name: \\.\pipe\wireshark_extcap_20170305205941
    Encapsulation type: USB packets with USBPcap header (152)
    Arrival Time: Mar  5, 2017 21:01:41.391774000 Малайское время (зима)
    UTC Arrival Time: Mar  5, 2017 13:01:41.391774000 UTC
    Epoch Arrival Time: 1488718901.391774000
    [Time shift for this packet: 0.000000000 seconds]
    [Time delta from previous captured frame: 0.000000000 seconds]
    [Time delta from previous displayed frame: 0.000000000 seconds]
    [Time since reference or first frame: 329.019000 milliseconds]
    Frame Number: 40
    Frame Length: 28 bytes (224 bits)
    Capture Length: 28 bytes (224 bits)
    [Frame is marked: False]
    [Frame is ignored: False]
    [Protocols in frame: usb]
    Character encoding: ASCII (0)
USB URB
    [Source: 4.1.0]
    [Destination: host]
    USBPcap pseudoheader length: 28
    IRP ID: 0xfffffa800e849b00
    IRP USBD_STATUS: USBD_STATUS_SUCCESS (0x00000000)
    URB Function: URB_FUNCTION_CONTROL_TRANSFER_EX (0x0032)
    IRP information: 0x01, Direction: PDO -> FDO
        0000 000. = Reserved: 0x00
        .... ...1 = Direction: PDO -> FDO (0x1)
    URB bus id: 4
    Device address: 1
    Endpoint: 0x00, Direction: OUT
        0... .... = Direction: OUT (0)
        .... 0000 = Endpoint number: 0
    URB transfer type: URB_CONTROL (0x02)
    Packet Data Length: 0
    [Request in: 39]
    [Time from request: 0.000000000 seconds]
    Control transfer stage: Status (2)

0.329019
0000  1c 00 00 9b 84 0e 80 fa ff ff 00 00 00 00 32 00   ..............2.
0010  01 04 00 01 00 00 02 00 00 00 00 02               ............

No.     Time           Source                Destination           Protocol Length Info
     41 0.329019       host                  4.1.0                 USBHUB   36     GET_STATUS Request     [Port 1]

Frame 41: Packet, 36 bytes on wire (288 bits), 36 bytes captured (288 bits) on interface \\.\pipe\wireshark_extcap_20170305205941, id 0
    Section number: 1
    Interface id: 0 (\\.\pipe\wireshark_extcap_20170305205941)
        Interface name: \\.\pipe\wireshark_extcap_20170305205941
    Encapsulation type: USB packets with USBPcap header (152)
    Arrival Time: Mar  5, 2017 21:01:41.391774000 Малайское время (зима)
    UTC Arrival Time: Mar  5, 2017 13:01:41.391774000 UTC
    Epoch Arrival Time: 1488718901.391774000
    [Time shift for this packet: 0.000000000 seconds]
    [Time delta from previous captured frame: 0.000000000 seconds]
    [Time delta from previous displayed frame: 0.000000000 seconds]
    [Time since reference or first frame: 329.019000 milliseconds]
    Frame Number: 41
    Frame Length: 36 bytes (288 bits)
    Capture Length: 36 bytes (288 bits)
    [Frame is marked: False]
    [Frame is ignored: False]
    [Protocols in frame: usb:usbhub]
    Character encoding: ASCII (0)
USB URB
    [Source: host]
    [Destination: 4.1.0]
    USBPcap pseudoheader length: 28
    IRP ID: 0xfffffa800e849b00
    IRP USBD_STATUS: USBD_STATUS_SUCCESS (0x00000000)
    URB Function: URB_FUNCTION_CONTROL_TRANSFER_EX (0x0032)
    IRP information: 0x00, Direction: FDO -> PDO
        0000 000. = Reserved: 0x00
        .... ...0 = Direction: FDO -> PDO (0x0)
    URB bus id: 4
    Device address: 1
    Endpoint: 0x80, Direction: IN
        1... .... = Direction: IN (1)
        .... 0000 = Endpoint number: 0
    URB transfer type: URB_CONTROL (0x02)
    Packet Data Length: 8
    [Response in: 42]
    Control transfer stage: Setup (0)
    [bInterfaceClass: Unknown (0xffff)]
Setup Data
    bmRequestType: 0xa3
        1... .... = Direction: Device-to-host
        .01. .... = Type: Class (0x1)
        ...0 0011 = Recipient: Other (0x03)
    bRequest: GET_STATUS (0x00)
    wValue: 0x0000
        (zero): 0
    wIndex: 1
        Port: 1
    wLength: 4

0.329019
0000  1c 00 00 9b 84 0e 80 fa ff ff 00 00 00 00 32 00   ..............2.
0010  00 04 00 01 00 80 02 08 00 00 00 00 a3 00 00 00   ................
0020  01 00 04 00                                       ....

No.     Time           Source                Destination           Protocol Length Info
     42 0.330019       4.1.0                 host                  USBHUB   32     GET_STATUS Response    [Port 1]

Frame 42: Packet, 32 bytes on wire (256 bits), 32 bytes captured (256 bits) on interface \\.\pipe\wireshark_extcap_20170305205941, id 0
    Section number: 1
    Interface id: 0 (\\.\pipe\wireshark_extcap_20170305205941)
        Interface name: \\.\pipe\wireshark_extcap_20170305205941
    Encapsulation type: USB packets with USBPcap header (152)
    Arrival Time: Mar  5, 2017 21:01:41.392774000 Малайское время (зима)
    UTC Arrival Time: Mar  5, 2017 13:01:41.392774000 UTC
    Epoch Arrival Time: 1488718901.392774000
    [Time shift for this packet: 0.000000000 seconds]
    [Time delta from previous captured frame: 1.000000 milliseconds]
    [Time delta from previous displayed frame: 1.000000 milliseconds]
    [Time since reference or first frame: 330.019000 milliseconds]
    Frame Number: 42
    Frame Length: 32 bytes (256 bits)
    Capture Length: 32 bytes (256 bits)
    [Frame is marked: False]
    [Frame is ignored: False]
    [Protocols in frame: usb:usbhub]
    Character encoding: ASCII (0)
USB URB
    [Source: 4.1.0]
    [Destination: host]
    USBPcap pseudoheader length: 28
    IRP ID: 0xfffffa800e849b00
    IRP USBD_STATUS: USBD_STATUS_SUCCESS (0x00000000)
    URB Function: URB_FUNCTION_CONTROL_TRANSFER_EX (0x0032)
    IRP information: 0x01, Direction: PDO -> FDO
        0000 000. = Reserved: 0x00
        .... ...1 = Direction: PDO -> FDO (0x1)
    URB bus id: 4
    Device address: 1
    Endpoint: 0x80, Direction: IN
        1... .... = Direction: IN (1)
        .... 0000 = Endpoint number: 0
    URB transfer type: URB_CONTROL (0x02)
    Packet Data Length: 4
    [Request in: 41]
    [Time from request: 1.000000 milliseconds]
    Control transfer stage: Data (1)
    [bInterfaceClass: Unknown (0xffff)]
Port Status: 0x0501, PORT_CONNECTION, PORT_POWER, PORT_HIGH_SPEED
    .... .... .... ...1 = PORT_CONNECTION: True
    .... .... .... ..0. = PORT_ENABLE: False
    .... .... .... .0.. = PORT_SUSPEND: False
    .... .... .... 0... = PORT_OVER_CURRENT: False
    .... .... ...0 .... = PORT_RESET: False
    .... ...1 .... .... = PORT_POWER: True
    .... ..0. .... .... = PORT_LOW_SPEED: False
    .... .1.. .... .... = PORT_HIGH_SPEED: True
    .... 0... .... .... = PORT_TEST: False
    ...0 .... .... .... = PORT_INDICATOR: Default colors
Port Change: 0x0000
